{"contracts/RSVP.sol":{"RSVP":{"abi":[{"inputs":[],"stateMutability":"nonpayable","type":"constructor"},{"anonymous":false,"inputs":[{"indexed":true,"internalType":"address payable[]","name":"_checkInAddresses","type":"address[]"},{"indexed":true,"internalType":"uint256","name":"_eventId","type":"uint256"}],"name":"BatchCheckedIn","type":"event"},{"anonymous":false,"inputs":[{"indexed":true,"internalType":"address payable","name":"_checkInAddress","type":"address"},{"indexed":true,"internalType":"uint256","name":"_eventId","type":"uint256"}],"name":"CheckedIn","type":"event"},{"anonymous":false,"inputs":[{"indexed":true,"internalType":"string","name":"_eventName","type":"string"},{"indexed":true,"internalType":"uint256","name":"_registerPrice","type":"uint256"},{"indexed":true,"internalType":"uint256","name":"_registrationDays","type":"uint256"}],"name":"NewEventCreated","type":"event"},{"anonymous":false,"inputs":[{"indexed":true,"internalType":"uint256","name":"_eventId","type":"uint256"}],"name":"PayoutComplete","type":"event"},{"anonymous":false,"inputs":[{"indexed":false,"internalType":"uint256","name":"_amount","type":"uint256"},{"indexed":true,"internalType":"uint56","name":"_eventId","type":"uint56"}],"name":"SignUpCompleted","type":"event"},{"inputs":[{"internalType":"address payable[]","name":"_checkInAddresses","type":"address[]"},{"internalType":"uint256","name":"_eventId","type":"uint256"}],"name":"batchCheckIn","outputs":[],"stateMutability":"nonpayable","type":"function"},{"inputs":[{"internalType":"address payable","name":"_checkInAddress","type":"address"},{"internalType":"uint256","name":"_eventId","type":"uint256"}],"name":"checkIn","outputs":[{"internalType":"bool","name":"","type":"bool"}],"stateMutability":"nonpayable","type":"function"},{"inputs":[{"internalType":"string","name":"_eventName","type":"string"},{"internalType":"uint256","name":"_maxNumber","type":"uint256"},{"internalType":"uint256","name":"_registerPrice","type":"uint256"},{"internalType":"uint256","name":"_registrationDays","type":"uint256"},{"internalType":"address","name":"_eventOwner","type":"address"}],"name":"createNewEvent","outputs":[{"internalType":"uint256","name":"","type":"uint256"}],"stateMutability":"nonpayable","type":"function"},{"inputs":[{"internalType":"uint256","name":"_eventId","type":"uint256"}],"name":"getEvent","outputs":[{"internalType":"string","name":"","type":"string"}],"stateMutability":"view","type":"function"},{"inputs":[{"internalType":"uint256","name":"_eventId","type":"uint256"}],"name":"payout","outputs":[],"stateMutability":"payable","type":"function"},{"inputs":[{"internalType":"uint256","name":"_amount","type":"uint256"},{"internalType":"uint56","name":"_eventId","type":"uint56"}],"name":"rsvp","outputs":[],"stateMutability":"payable","type":"function"},{"inputs":[],"name":"totalEvents","outputs":[{"internalType":"uint256","name":"","type":"uint256"}],"stateMutability":"view","type":"function"}],"evm":{"bytecode":{"linkReferences":{},"object":"6080604052600160025534801561001557600080fd5b50336000806101000a81548173ffffffffffffffffffffffffffffffffffffffff021916908373ffffffffffffffffffffffffffffffffffffffff160217905550611990806100656000396000f3fe6080604052600436106100705760003560e01c8063bb4c03b11161004e578063bb4c03b11461011a578063ce5b731114610157578063dbbb216e14610173578063e11523431461019c57610070565b80632e66c69a146100755780636d1884e0146100b2578063ba870686146100ef575b600080fd5b34801561008157600080fd5b5061009c60048036038101906100979190611098565b6101b8565b6040516100a991906113c0565b60405180910390f35b3480156100be57600080fd5b506100d960048036038101906100d491906111b7565b6103f6565b6040516100e691906113db565b60405180910390f35b3480156100fb57600080fd5b5061010461049e565b604051610111919061145d565b60405180910390f35b34801561012657600080fd5b50610141600480360381019061013c9190611128565b6104a4565b60405161014e919061145d565b60405180910390f35b610171600480360381019061016c91906111e0565b6106ec565b005b34801561017f57600080fd5b5061019a600480360381019061019591906110d4565b610891565b005b6101b660048036038101906101b191906111b7565b610b83565b005b60008060009054906101000a900473ffffffffffffffffffffffffffffffffffffffff1673ffffffffffffffffffffffffffffffffffffffff163373ffffffffffffffffffffffffffffffffffffffff1614610249576040517f08c379a00000000000000000000000000000000000000000000000000000000081526004016102409061141d565b60405180910390fd5b60005b60036000848152602001908152602001600020600701805490508111610330578373ffffffffffffffffffffffffffffffffffffffff166003600085815260200190815260200160002060070182815481106102d1577f4e487b7100000000000000000000000000000000000000000000000000000000600052603260045260246000fd5b9060005260206000200160009054906101000a900473ffffffffffffffffffffffffffffffffffffffff1673ffffffffffffffffffffffffffffffffffffffff16141561031d57600080fd5b808061032890611747565b91505061024c565b5060036000838152602001908152602001600020600701839080600181540180825580915050600190039060005260206000200160009091909190916101000a81548173ffffffffffffffffffffffffffffffffffffffff021916908373ffffffffffffffffffffffffffffffffffffffff160217905550818373ffffffffffffffffffffffffffffffffffffffff167fdddb6e14f7f2101397a6526aab95e964de7f1f44ed06aa47a1c9a0e6b992445660405160405180910390a36001905092915050565b6060600360008381526020019081526020016000206000018054610419906116e4565b80601f0160208091040260200160405190810160405280929190818152602001828054610445906116e4565b80156104925780601f1061046757610100808354040283529160200191610492565b820191906000526020600020905b81548152906001019060200180831161047557829003601f168201915b50505050509050919050565b60015481565b600060025460015414156104ed576040517f08c379a00000000000000000000000000000000000000000000000000000000081526004016104e4906113fd565b60405180910390fd5b8560046000019080519060200190610506929190610d72565b508460046001018190555083600460020181905550826004600301819055506000600480018190555081600460050160006101000a81548173ffffffffffffffffffffffffffffffffffffffff021916908373ffffffffffffffffffffffffffffffffffffffff1602179055506004600360006002548152602001908152602001600020600082018160000190805461059e906116e4565b6105a9929190610df8565b50600182015481600101556002820154816002015560038201548160030155600482015481600401556005820160009054906101000a900473ffffffffffffffffffffffffffffffffffffffff168160050160006101000a81548173ffffffffffffffffffffffffffffffffffffffff021916908373ffffffffffffffffffffffffffffffffffffffff160217905550600682018160060190805461064f929190610e85565b506007820181600701908054610666929190610ed7565b509050506001600081548092919061067d90611747565b91905055506002600081548092919061069590611747565b91905055508284876040516106aa91906113a9565b60405180910390207f280a3fef73bcb7a007068343883679f5f372869bfd4f0a91b41361f91064649660405160405180910390a4600254905095945050505050565b670de0b6b3a7640000600360008366ffffffffffffff1681526020019081526020016000206002015461071f91906115db565b8211610760576040517f08c379a00000000000000000000000000000000000000000000000000000000081526004016107579061143d565b60405180910390fd5b600360008266ffffffffffffff168152602001908152602001600020600601339080600181540180825580915050600190039060005260206000200160009091909190916101000a81548173ffffffffffffffffffffffffffffffffffffffff021916908373ffffffffffffffffffffffffffffffffffffffff16021790555081600360008366ffffffffffffff168152602001908152602001600020600401600082825461080f9190611554565b9250508190555081600360008366ffffffffffffff16815260200190815260200160002060040160008282546108459190611554565b925050819055508066ffffffffffffff167f89312209213b327c87aa19b3612de0ab68be449f8a99024e2b0f724b63d9015783604051610885919061145d565b60405180910390a25050565b60008054906101000a900473ffffffffffffffffffffffffffffffffffffffff1673ffffffffffffffffffffffffffffffffffffffff163373ffffffffffffffffffffffffffffffffffffffff161461091f576040517f08c379a00000000000000000000000000000000000000000000000000000000081526004016109169061141d565b60405180910390fd5b60005b82518111610a655760005b60036000848152602001908152602001600020600701805490508111610a5157838181518110610986577f4e487b7100000000000000000000000000000000000000000000000000000000600052603260045260246000fd5b602002602001015173ffffffffffffffffffffffffffffffffffffffff166003600085815260200190815260200160002060070182815481106109f2577f4e487b7100000000000000000000000000000000000000000000000000000000600052603260045260246000fd5b9060005260206000200160009054906101000a900473ffffffffffffffffffffffffffffffffffffffff1673ffffffffffffffffffffffffffffffffffffffff161415610a3e57600080fd5b8080610a4990611747565b91505061092d565b508080610a5d90611747565b915050610922565b5060005b82518111610b3b5760036000838152602001908152602001600020600701838281518110610ac0577f4e487b7100000000000000000000000000000000000000000000000000000000600052603260045260246000fd5b60200260200101519080600181540180825580915050600190039060005260206000200160009091909190916101000a81548173ffffffffffffffffffffffffffffffffffffffff021916908373ffffffffffffffffffffffffffffffffffffffff1602179055508080610b3390611747565b915050610a69565b508082604051610b4b9190611392565b60405180910390207f71566cbbba2a90d6171996fe10305d3b79e28d2c2d41ba9ab2a5d9f2f344522c60405160405180910390a35050565b60008054906101000a900473ffffffffffffffffffffffffffffffffffffffff1673ffffffffffffffffffffffffffffffffffffffff163373ffffffffffffffffffffffffffffffffffffffff1614610c11576040517f08c379a0000000000000000000000000000000000000000000000000000000008152600401610c089061141d565b60405180910390fd5b60005b6003600083815260200190815260200160002060070180549050811015610d4157600360008381526020019081526020016000206007018181548110610c83577f4e487b7100000000000000000000000000000000000000000000000000000000600052603260045260246000fd5b9060005260206000200160009054906101000a900473ffffffffffffffffffffffffffffffffffffffff1673ffffffffffffffffffffffffffffffffffffffff166108fc60036000858152602001908152602001600020600701805490506003600086815260200190815260200160002060040154610d0291906115aa565b9081150290604051600060405180830381858888f19350505050158015610d2d573d6000803e3d6000fd5b508080610d3990611747565b915050610c14565b50807fcfcd62f236ba65805b61d8ea77baa3f89ae3ff69eeecbb3d7e1bea8094de64e760405160405180910390a250565b828054610d7e906116e4565b90600052602060002090601f016020900481019282610da05760008555610de7565b82601f10610db957805160ff1916838001178555610de7565b82800160010185558215610de7579182015b82811115610de6578251825591602001919060010190610dcb565b5b509050610df49190610f29565b5090565b828054610e04906116e4565b90600052602060002090601f016020900481019282610e265760008555610e74565b82601f10610e375780548555610e74565b82800160010185558215610e7457600052602060002091601f016020900482015b82811115610e73578254825591600101919060010190610e58565b5b509050610e819190610f29565b5090565b828054828255906000526020600020908101928215610ec65760005260206000209182015b82811115610ec5578254825591600101919060010190610eaa565b5b509050610ed39190610f29565b5090565b828054828255906000526020600020908101928215610f185760005260206000209182015b82811115610f17578254825591600101919060010190610efc565b5b509050610f259190610f29565b5090565b5b80821115610f42576000816000905550600101610f2a565b5090565b6000610f59610f548461149d565b611478565b90508083825260208201905082856020860282011115610f7857600080fd5b60005b85811015610fa85781610f8e8882611005565b845260208401935060208301925050600181019050610f7b565b5050509392505050565b6000610fc5610fc0846114c9565b611478565b905082815260208101848484011115610fdd57600080fd5b610fe88482856116a2565b509392505050565b600081359050610fff816118fe565b92915050565b60008135905061101481611915565b92915050565b600082601f83011261102b57600080fd5b813561103b848260208601610f46565b91505092915050565b600082601f83011261105557600080fd5b8135611065848260208601610fb2565b91505092915050565b60008135905061107d8161192c565b92915050565b60008135905061109281611943565b92915050565b600080604083850312156110ab57600080fd5b60006110b985828601611005565b92505060206110ca8582860161106e565b9150509250929050565b600080604083850312156110e757600080fd5b600083013567ffffffffffffffff81111561110157600080fd5b61110d8582860161101a565b925050602061111e8582860161106e565b9150509250929050565b600080600080600060a0868803121561114057600080fd5b600086013567ffffffffffffffff81111561115a57600080fd5b61116688828901611044565b95505060206111778882890161106e565b94505060406111888882890161106e565b93505060606111998882890161106e565b92505060806111aa88828901610ff0565b9150509295509295909350565b6000602082840312156111c957600080fd5b60006111d78482850161106e565b91505092915050565b600080604083850312156111f357600080fd5b60006112018582860161106e565b925050602061121285828601611083565b9150509250929050565b60006112288383611234565b60208301905092915050565b61123d81611647565b82525050565b600061124e8261150a565b611258818561152d565b9350611263836114fa565b8060005b8381101561129457815161127b888261121c565b975061128683611520565b925050600181019050611267565b5085935050505092915050565b6112aa81611659565b82525050565b60006112bb82611515565b6112c58185611538565b93506112d58185602086016116b1565b6112de8161184c565b840191505092915050565b60006112f482611515565b6112fe8185611549565b935061130e8185602086016116b1565b80840191505092915050565b6000611327602183611538565b91506113328261185d565b604082019050919050565b600061134a601383611538565b9150611355826118ac565b602082019050919050565b600061136d601a83611538565b9150611378826118d5565b602082019050919050565b61138c81611685565b82525050565b600061139e8284611243565b915081905092915050565b60006113b582846112e9565b915081905092915050565b60006020820190506113d560008301846112a1565b92915050565b600060208201905081810360008301526113f581846112b0565b905092915050565b600060208201905081810360008301526114168161131a565b9050919050565b600060208201905081810360008301526114368161133d565b9050919050565b6000602082019050818103600083015261145681611360565b9050919050565b60006020820190506114726000830184611383565b92915050565b6000611482611493565b905061148e8282611716565b919050565b6000604051905090565b600067ffffffffffffffff8211156114b8576114b761181d565b5b602082029050602081019050919050565b600067ffffffffffffffff8211156114e4576114e361181d565b5b6114ed8261184c565b9050602081019050919050565b6000819050602082019050919050565b600081519050919050565b600081519050919050565b6000602082019050919050565b600081905092915050565b600082825260208201905092915050565b600081905092915050565b600061155f82611685565b915061156a83611685565b9250827fffffffffffffffffffffffffffffffffffffffffffffffffffffffffffffffff0382111561159f5761159e611790565b5b828201905092915050565b60006115b582611685565b91506115c083611685565b9250826115d0576115cf6117bf565b5b828204905092915050565b60006115e682611685565b91506115f183611685565b9250817fffffffffffffffffffffffffffffffffffffffffffffffffffffffffffffffff048311821515161561162a57611629611790565b5b828202905092915050565b600061164082611665565b9050919050565b600061165282611665565b9050919050565b60008115159050919050565b600073ffffffffffffffffffffffffffffffffffffffff82169050919050565b6000819050919050565b600066ffffffffffffff82169050919050565b82818337600083830152505050565b60005b838110156116cf5780820151818401526020810190506116b4565b838111156116de576000848401525b50505050565b600060028204905060018216806116fc57607f821691505b602082108114156117105761170f6117ee565b5b50919050565b61171f8261184c565b810181811067ffffffffffffffff8211171561173e5761173d61181d565b5b80604052505050565b600061175282611685565b91507fffffffffffffffffffffffffffffffffffffffffffffffffffffffffffffffff82141561178557611784611790565b5b600182019050919050565b7f4e487b7100000000000000000000000000000000000000000000000000000000600052601160045260246000fd5b7f4e487b7100000000000000000000000000000000000000000000000000000000600052601260045260246000fd5b7f4e487b7100000000000000000000000000000000000000000000000000000000600052602260045260246000fd5b7f4e487b7100000000000000000000000000000000000000000000000000000000600052604160045260246000fd5b6000601f19601f8301169050919050565b7f457870656374656420616e20696e6374656d656e746564204964206e756d626560008201527f7200000000000000000000000000000000000000000000000000000000000000602082015250565b7f43616c6c6572206973206e6f74206f776e657200000000000000000000000000600082015250565b7f446964206e6f742070617920656e6f75676820746f2052535650000000000000600082015250565b61190781611635565b811461191257600080fd5b50565b61191e81611647565b811461192957600080fd5b50565b61193581611685565b811461194057600080fd5b50565b61194c8161168f565b811461195757600080fd5b5056fea2646970667358221220ec901cc77d9a9b6e269f47d6c250237e2f16d46689d09387cbec00e4678e963364736f6c63430008040033","opcodes":"PUSH1 0x80 PUSH1 0x40 MSTORE PUSH1 0x1 PUSH1 0x2 SSTORE CALLVALUE DUP1 ISZERO PUSH2 0x15 JUMPI PUSH1 0x0 DUP1 REVERT JUMPDEST POP CALLER PUSH1 0x0 DUP1 PUSH2 0x100 EXP DUP2 SLOAD DUP2 PUSH20 0xFFFFFFFFFFFFFFFFFFFFFFFFFFFFFFFFFFFFFFFF MUL NOT AND SWAP1 DUP4 PUSH20 0xFFFFFFFFFFFFFFFFFFFFFFFFFFFFFFFFFFFFFFFF AND MUL OR SWAP1 SSTORE POP PUSH2 0x1990 DUP1 PUSH2 0x65 PUSH1 0x0 CODECOPY PUSH1 0x0 RETURN INVALID PUSH1 0x80 PUSH1 0x40 MSTORE PUSH1 0x4 CALLDATASIZE LT PUSH2 0x70 JUMPI PUSH1 0x0 CALLDATALOAD PUSH1 0xE0 SHR DUP1 PUSH4 0xBB4C03B1 GT PUSH2 0x4E JUMPI DUP1 PUSH4 0xBB4C03B1 EQ PUSH2 0x11A JUMPI DUP1 PUSH4 0xCE5B7311 EQ PUSH2 0x157 JUMPI DUP1 PUSH4 0xDBBB216E EQ PUSH2 0x173 JUMPI DUP1 PUSH4 0xE1152343 EQ PUSH2 0x19C JUMPI PUSH2 0x70 JUMP JUMPDEST DUP1 PUSH4 0x2E66C69A EQ PUSH2 0x75 JUMPI DUP1 PUSH4 0x6D1884E0 EQ PUSH2 0xB2 JUMPI DUP1 PUSH4 0xBA870686 EQ PUSH2 0xEF JUMPI JUMPDEST PUSH1 0x0 DUP1 REVERT JUMPDEST CALLVALUE DUP1 ISZERO PUSH2 0x81 JUMPI PUSH1 0x0 DUP1 REVERT JUMPDEST POP PUSH2 0x9C PUSH1 0x4 DUP1 CALLDATASIZE SUB DUP2 ADD SWAP1 PUSH2 0x97 SWAP2 SWAP1 PUSH2 0x1098 JUMP JUMPDEST PUSH2 0x1B8 JUMP JUMPDEST PUSH1 0x40 MLOAD PUSH2 0xA9 SWAP2 SWAP1 PUSH2 0x13C0 JUMP JUMPDEST PUSH1 0x40 MLOAD DUP1 SWAP2 SUB SWAP1 RETURN JUMPDEST CALLVALUE DUP1 ISZERO PUSH2 0xBE JUMPI PUSH1 0x0 DUP1 REVERT JUMPDEST POP PUSH2 0xD9 PUSH1 0x4 DUP1 CALLDATASIZE SUB DUP2 ADD SWAP1 PUSH2 0xD4 SWAP2 SWAP1 PUSH2 0x11B7 JUMP JUMPDEST PUSH2 0x3F6 JUMP JUMPDEST PUSH1 0x40 MLOAD PUSH2 0xE6 SWAP2 SWAP1 PUSH2 0x13DB JUMP JUMPDEST PUSH1 0x40 MLOAD DUP1 SWAP2 SUB SWAP1 RETURN JUMPDEST CALLVALUE DUP1 ISZERO PUSH2 0xFB JUMPI PUSH1 0x0 DUP1 REVERT JUMPDEST POP PUSH2 0x104 PUSH2 0x49E JUMP JUMPDEST PUSH1 0x40 MLOAD PUSH2 0x111 SWAP2 SWAP1 PUSH2 0x145D JUMP JUMPDEST PUSH1 0x40 MLOAD DUP1 SWAP2 SUB SWAP1 RETURN JUMPDEST CALLVALUE DUP1 ISZERO PUSH2 0x126 JUMPI PUSH1 0x0 DUP1 REVERT JUMPDEST POP PUSH2 0x141 PUSH1 0x4 DUP1 CALLDATASIZE SUB DUP2 ADD SWAP1 PUSH2 0x13C SWAP2 SWAP1 PUSH2 0x1128 JUMP JUMPDEST PUSH2 0x4A4 JUMP JUMPDEST PUSH1 0x40 MLOAD PUSH2 0x14E SWAP2 SWAP1 PUSH2 0x145D JUMP JUMPDEST PUSH1 0x40 MLOAD DUP1 SWAP2 SUB SWAP1 RETURN JUMPDEST PUSH2 0x171 PUSH1 0x4 DUP1 CALLDATASIZE SUB DUP2 ADD SWAP1 PUSH2 0x16C SWAP2 SWAP1 PUSH2 0x11E0 JUMP JUMPDEST PUSH2 0x6EC JUMP JUMPDEST STOP JUMPDEST CALLVALUE DUP1 ISZERO PUSH2 0x17F JUMPI PUSH1 0x0 DUP1 REVERT JUMPDEST POP PUSH2 0x19A PUSH1 0x4 DUP1 CALLDATASIZE SUB DUP2 ADD SWAP1 PUSH2 0x195 SWAP2 SWAP1 PUSH2 0x10D4 JUMP JUMPDEST PUSH2 0x891 JUMP JUMPDEST STOP JUMPDEST PUSH2 0x1B6 PUSH1 0x4 DUP1 CALLDATASIZE SUB DUP2 ADD SWAP1 PUSH2 0x1B1 SWAP2 SWAP1 PUSH2 0x11B7 JUMP JUMPDEST PUSH2 0xB83 JUMP JUMPDEST STOP JUMPDEST PUSH1 0x0 DUP1 PUSH1 0x0 SWAP1 SLOAD SWAP1 PUSH2 0x100 EXP SWAP1 DIV PUSH20 0xFFFFFFFFFFFFFFFFFFFFFFFFFFFFFFFFFFFFFFFF AND PUSH20 0xFFFFFFFFFFFFFFFFFFFFFFFFFFFFFFFFFFFFFFFF AND CALLER PUSH20 0xFFFFFFFFFFFFFFFFFFFFFFFFFFFFFFFFFFFFFFFF AND EQ PUSH2 0x249 JUMPI PUSH1 0x40 MLOAD PUSH32 0x8C379A000000000000000000000000000000000000000000000000000000000 DUP2 MSTORE PUSH1 0x4 ADD PUSH2 0x240 SWAP1 PUSH2 0x141D JUMP JUMPDEST PUSH1 0x40 MLOAD DUP1 SWAP2 SUB SWAP1 REVERT JUMPDEST PUSH1 0x0 JUMPDEST PUSH1 0x3 PUSH1 0x0 DUP5 DUP2 MSTORE PUSH1 0x20 ADD SWAP1 DUP2 MSTORE PUSH1 0x20 ADD PUSH1 0x0 KECCAK256 PUSH1 0x7 ADD DUP1 SLOAD SWAP1 POP DUP2 GT PUSH2 0x330 JUMPI DUP4 PUSH20 0xFFFFFFFFFFFFFFFFFFFFFFFFFFFFFFFFFFFFFFFF AND PUSH1 0x3 PUSH1 0x0 DUP6 DUP2 MSTORE PUSH1 0x20 ADD SWAP1 DUP2 MSTORE PUSH1 0x20 ADD PUSH1 0x0 KECCAK256 PUSH1 0x7 ADD DUP3 DUP2 SLOAD DUP2 LT PUSH2 0x2D1 JUMPI PUSH32 0x4E487B7100000000000000000000000000000000000000000000000000000000 PUSH1 0x0 MSTORE PUSH1 0x32 PUSH1 0x4 MSTORE PUSH1 0x24 PUSH1 0x0 REVERT JUMPDEST SWAP1 PUSH1 0x0 MSTORE PUSH1 0x20 PUSH1 0x0 KECCAK256 ADD PUSH1 0x0 SWAP1 SLOAD SWAP1 PUSH2 0x100 EXP SWAP1 DIV PUSH20 0xFFFFFFFFFFFFFFFFFFFFFFFFFFFFFFFFFFFFFFFF AND PUSH20 0xFFFFFFFFFFFFFFFFFFFFFFFFFFFFFFFFFFFFFFFF AND EQ ISZERO PUSH2 0x31D JUMPI PUSH1 0x0 DUP1 REVERT JUMPDEST DUP1 DUP1 PUSH2 0x328 SWAP1 PUSH2 0x1747 JUMP JUMPDEST SWAP2 POP POP PUSH2 0x24C JUMP JUMPDEST POP PUSH1 0x3 PUSH1 0x0 DUP4 DUP2 MSTORE PUSH1 0x20 ADD SWAP1 DUP2 MSTORE PUSH1 0x20 ADD PUSH1 0x0 KECCAK256 PUSH1 0x7 ADD DUP4 SWAP1 DUP1 PUSH1 0x1 DUP2 SLOAD ADD DUP1 DUP3 SSTORE DUP1 SWAP2 POP POP PUSH1 0x1 SWAP1 SUB SWAP1 PUSH1 0x0 MSTORE PUSH1 0x20 PUSH1 0x0 KECCAK256 ADD PUSH1 0x0 SWAP1 SWAP2 SWAP1 SWAP2 SWAP1 SWAP2 PUSH2 0x100 EXP DUP2 SLOAD DUP2 PUSH20 0xFFFFFFFFFFFFFFFFFFFFFFFFFFFFFFFFFFFFFFFF MUL NOT AND SWAP1 DUP4 PUSH20 0xFFFFFFFFFFFFFFFFFFFFFFFFFFFFFFFFFFFFFFFF AND MUL OR SWAP1 SSTORE POP DUP2 DUP4 PUSH20 0xFFFFFFFFFFFFFFFFFFFFFFFFFFFFFFFFFFFFFFFF AND PUSH32 0xDDDB6E14F7F2101397A6526AAB95E964DE7F1F44ED06AA47A1C9A0E6B9924456 PUSH1 0x40 MLOAD PUSH1 0x40 MLOAD DUP1 SWAP2 SUB SWAP1 LOG3 PUSH1 0x1 SWAP1 POP SWAP3 SWAP2 POP POP JUMP JUMPDEST PUSH1 0x60 PUSH1 0x3 PUSH1 0x0 DUP4 DUP2 MSTORE PUSH1 0x20 ADD SWAP1 DUP2 MSTORE PUSH1 0x20 ADD PUSH1 0x0 KECCAK256 PUSH1 0x0 ADD DUP1 SLOAD PUSH2 0x419 SWAP1 PUSH2 0x16E4 JUMP JUMPDEST DUP1 PUSH1 0x1F ADD PUSH1 0x20 DUP1 SWAP2 DIV MUL PUSH1 0x20 ADD PUSH1 0x40 MLOAD SWAP1 DUP2 ADD PUSH1 0x40 MSTORE DUP1 SWAP3 SWAP2 SWAP1 DUP2 DUP2 MSTORE PUSH1 0x20 ADD DUP3 DUP1 SLOAD PUSH2 0x445 SWAP1 PUSH2 0x16E4 JUMP JUMPDEST DUP1 ISZERO PUSH2 0x492 JUMPI DUP1 PUSH1 0x1F LT PUSH2 0x467 JUMPI PUSH2 0x100 DUP1 DUP4 SLOAD DIV MUL DUP4 MSTORE SWAP2 PUSH1 0x20 ADD SWAP2 PUSH2 0x492 JUMP JUMPDEST DUP3 ADD SWAP2 SWAP1 PUSH1 0x0 MSTORE PUSH1 0x20 PUSH1 0x0 KECCAK256 SWAP1 JUMPDEST DUP2 SLOAD DUP2 MSTORE SWAP1 PUSH1 0x1 ADD SWAP1 PUSH1 0x20 ADD DUP1 DUP4 GT PUSH2 0x475 JUMPI DUP3 SWAP1 SUB PUSH1 0x1F AND DUP3 ADD SWAP2 JUMPDEST POP POP POP POP POP SWAP1 POP SWAP2 SWAP1 POP JUMP JUMPDEST PUSH1 0x1 SLOAD DUP2 JUMP JUMPDEST PUSH1 0x0 PUSH1 0x2 SLOAD PUSH1 0x1 SLOAD EQ ISZERO PUSH2 0x4ED JUMPI PUSH1 0x40 MLOAD PUSH32 0x8C379A000000000000000000000000000000000000000000000000000000000 DUP2 MSTORE PUSH1 0x4 ADD PUSH2 0x4E4 SWAP1 PUSH2 0x13FD JUMP JUMPDEST PUSH1 0x40 MLOAD DUP1 SWAP2 SUB SWAP1 REVERT JUMPDEST DUP6 PUSH1 0x4 PUSH1 0x0 ADD SWAP1 DUP1 MLOAD SWAP1 PUSH1 0x20 ADD SWAP1 PUSH2 0x506 SWAP3 SWAP2 SWAP1 PUSH2 0xD72 JUMP JUMPDEST POP DUP5 PUSH1 0x4 PUSH1 0x1 ADD DUP2 SWAP1 SSTORE POP DUP4 PUSH1 0x4 PUSH1 0x2 ADD DUP2 SWAP1 SSTORE POP DUP3 PUSH1 0x4 PUSH1 0x3 ADD DUP2 SWAP1 SSTORE POP PUSH1 0x0 PUSH1 0x4 DUP1 ADD DUP2 SWAP1 SSTORE POP DUP2 PUSH1 0x4 PUSH1 0x5 ADD PUSH1 0x0 PUSH2 0x100 EXP DUP2 SLOAD DUP2 PUSH20 0xFFFFFFFFFFFFFFFFFFFFFFFFFFFFFFFFFFFFFFFF MUL NOT AND SWAP1 DUP4 PUSH20 0xFFFFFFFFFFFFFFFFFFFFFFFFFFFFFFFFFFFFFFFF AND MUL OR SWAP1 SSTORE POP PUSH1 0x4 PUSH1 0x3 PUSH1 0x0 PUSH1 0x2 SLOAD DUP2 MSTORE PUSH1 0x20 ADD SWAP1 DUP2 MSTORE PUSH1 0x20 ADD PUSH1 0x0 KECCAK256 PUSH1 0x0 DUP3 ADD DUP2 PUSH1 0x0 ADD SWAP1 DUP1 SLOAD PUSH2 0x59E SWAP1 PUSH2 0x16E4 JUMP JUMPDEST PUSH2 0x5A9 SWAP3 SWAP2 SWAP1 PUSH2 0xDF8 JUMP JUMPDEST POP PUSH1 0x1 DUP3 ADD SLOAD DUP2 PUSH1 0x1 ADD SSTORE PUSH1 0x2 DUP3 ADD SLOAD DUP2 PUSH1 0x2 ADD SSTORE PUSH1 0x3 DUP3 ADD SLOAD DUP2 PUSH1 0x3 ADD SSTORE PUSH1 0x4 DUP3 ADD SLOAD DUP2 PUSH1 0x4 ADD SSTORE PUSH1 0x5 DUP3 ADD PUSH1 0x0 SWAP1 SLOAD SWAP1 PUSH2 0x100 EXP SWAP1 DIV PUSH20 0xFFFFFFFFFFFFFFFFFFFFFFFFFFFFFFFFFFFFFFFF AND DUP2 PUSH1 0x5 ADD PUSH1 0x0 PUSH2 0x100 EXP DUP2 SLOAD DUP2 PUSH20 0xFFFFFFFFFFFFFFFFFFFFFFFFFFFFFFFFFFFFFFFF MUL NOT AND SWAP1 DUP4 PUSH20 0xFFFFFFFFFFFFFFFFFFFFFFFFFFFFFFFFFFFFFFFF AND MUL OR SWAP1 SSTORE POP PUSH1 0x6 DUP3 ADD DUP2 PUSH1 0x6 ADD SWAP1 DUP1 SLOAD PUSH2 0x64F SWAP3 SWAP2 SWAP1 PUSH2 0xE85 JUMP JUMPDEST POP PUSH1 0x7 DUP3 ADD DUP2 PUSH1 0x7 ADD SWAP1 DUP1 SLOAD PUSH2 0x666 SWAP3 SWAP2 SWAP1 PUSH2 0xED7 JUMP JUMPDEST POP SWAP1 POP POP PUSH1 0x1 PUSH1 0x0 DUP2 SLOAD DUP1 SWAP3 SWAP2 SWAP1 PUSH2 0x67D SWAP1 PUSH2 0x1747 JUMP JUMPDEST SWAP2 SWAP1 POP SSTORE POP PUSH1 0x2 PUSH1 0x0 DUP2 SLOAD DUP1 SWAP3 SWAP2 SWAP1 PUSH2 0x695 SWAP1 PUSH2 0x1747 JUMP JUMPDEST SWAP2 SWAP1 POP SSTORE POP DUP3 DUP5 DUP8 PUSH1 0x40 MLOAD PUSH2 0x6AA SWAP2 SWAP1 PUSH2 0x13A9 JUMP JUMPDEST PUSH1 0x40 MLOAD DUP1 SWAP2 SUB SWAP1 KECCAK256 PUSH32 0x280A3FEF73BCB7A007068343883679F5F372869BFD4F0A91B41361F910646496 PUSH1 0x40 MLOAD PUSH1 0x40 MLOAD DUP1 SWAP2 SUB SWAP1 LOG4 PUSH1 0x2 SLOAD SWAP1 POP SWAP6 SWAP5 POP POP POP POP POP JUMP JUMPDEST PUSH8 0xDE0B6B3A7640000 PUSH1 0x3 PUSH1 0x0 DUP4 PUSH7 0xFFFFFFFFFFFFFF AND DUP2 MSTORE PUSH1 0x20 ADD SWAP1 DUP2 MSTORE PUSH1 0x20 ADD PUSH1 0x0 KECCAK256 PUSH1 0x2 ADD SLOAD PUSH2 0x71F SWAP2 SWAP1 PUSH2 0x15DB JUMP JUMPDEST DUP3 GT PUSH2 0x760 JUMPI PUSH1 0x40 MLOAD PUSH32 0x8C379A000000000000000000000000000000000000000000000000000000000 DUP2 MSTORE PUSH1 0x4 ADD PUSH2 0x757 SWAP1 PUSH2 0x143D JUMP JUMPDEST PUSH1 0x40 MLOAD DUP1 SWAP2 SUB SWAP1 REVERT JUMPDEST PUSH1 0x3 PUSH1 0x0 DUP3 PUSH7 0xFFFFFFFFFFFFFF AND DUP2 MSTORE PUSH1 0x20 ADD SWAP1 DUP2 MSTORE PUSH1 0x20 ADD PUSH1 0x0 KECCAK256 PUSH1 0x6 ADD CALLER SWAP1 DUP1 PUSH1 0x1 DUP2 SLOAD ADD DUP1 DUP3 SSTORE DUP1 SWAP2 POP POP PUSH1 0x1 SWAP1 SUB SWAP1 PUSH1 0x0 MSTORE PUSH1 0x20 PUSH1 0x0 KECCAK256 ADD PUSH1 0x0 SWAP1 SWAP2 SWAP1 SWAP2 SWAP1 SWAP2 PUSH2 0x100 EXP DUP2 SLOAD DUP2 PUSH20 0xFFFFFFFFFFFFFFFFFFFFFFFFFFFFFFFFFFFFFFFF MUL NOT AND SWAP1 DUP4 PUSH20 0xFFFFFFFFFFFFFFFFFFFFFFFFFFFFFFFFFFFFFFFF AND MUL OR SWAP1 SSTORE POP DUP2 PUSH1 0x3 PUSH1 0x0 DUP4 PUSH7 0xFFFFFFFFFFFFFF AND DUP2 MSTORE PUSH1 0x20 ADD SWAP1 DUP2 MSTORE PUSH1 0x20 ADD PUSH1 0x0 KECCAK256 PUSH1 0x4 ADD PUSH1 0x0 DUP3 DUP3 SLOAD PUSH2 0x80F SWAP2 SWAP1 PUSH2 0x1554 JUMP JUMPDEST SWAP3 POP POP DUP2 SWAP1 SSTORE POP DUP2 PUSH1 0x3 PUSH1 0x0 DUP4 PUSH7 0xFFFFFFFFFFFFFF AND DUP2 MSTORE PUSH1 0x20 ADD SWAP1 DUP2 MSTORE PUSH1 0x20 ADD PUSH1 0x0 KECCAK256 PUSH1 0x4 ADD PUSH1 0x0 DUP3 DUP3 SLOAD PUSH2 0x845 SWAP2 SWAP1 PUSH2 0x1554 JUMP JUMPDEST SWAP3 POP POP DUP2 SWAP1 SSTORE POP DUP1 PUSH7 0xFFFFFFFFFFFFFF AND PUSH32 0x89312209213B327C87AA19B3612DE0AB68BE449F8A99024E2B0F724B63D90157 DUP4 PUSH1 0x40 MLOAD PUSH2 0x885 SWAP2 SWAP1 PUSH2 0x145D JUMP JUMPDEST PUSH1 0x40 MLOAD DUP1 SWAP2 SUB SWAP1 LOG2 POP POP JUMP JUMPDEST PUSH1 0x0 DUP1 SLOAD SWAP1 PUSH2 0x100 EXP SWAP1 DIV PUSH20 0xFFFFFFFFFFFFFFFFFFFFFFFFFFFFFFFFFFFFFFFF AND PUSH20 0xFFFFFFFFFFFFFFFFFFFFFFFFFFFFFFFFFFFFFFFF AND CALLER PUSH20 0xFFFFFFFFFFFFFFFFFFFFFFFFFFFFFFFFFFFFFFFF AND EQ PUSH2 0x91F JUMPI PUSH1 0x40 MLOAD PUSH32 0x8C379A000000000000000000000000000000000000000000000000000000000 DUP2 MSTORE PUSH1 0x4 ADD PUSH2 0x916 SWAP1 PUSH2 0x141D JUMP JUMPDEST PUSH1 0x40 MLOAD DUP1 SWAP2 SUB SWAP1 REVERT JUMPDEST PUSH1 0x0 JUMPDEST DUP3 MLOAD DUP2 GT PUSH2 0xA65 JUMPI PUSH1 0x0 JUMPDEST PUSH1 0x3 PUSH1 0x0 DUP5 DUP2 MSTORE PUSH1 0x20 ADD SWAP1 DUP2 MSTORE PUSH1 0x20 ADD PUSH1 0x0 KECCAK256 PUSH1 0x7 ADD DUP1 SLOAD SWAP1 POP DUP2 GT PUSH2 0xA51 JUMPI DUP4 DUP2 DUP2 MLOAD DUP2 LT PUSH2 0x986 JUMPI PUSH32 0x4E487B7100000000000000000000000000000000000000000000000000000000 PUSH1 0x0 MSTORE PUSH1 0x32 PUSH1 0x4 MSTORE PUSH1 0x24 PUSH1 0x0 REVERT JUMPDEST PUSH1 0x20 MUL PUSH1 0x20 ADD ADD MLOAD PUSH20 0xFFFFFFFFFFFFFFFFFFFFFFFFFFFFFFFFFFFFFFFF AND PUSH1 0x3 PUSH1 0x0 DUP6 DUP2 MSTORE PUSH1 0x20 ADD SWAP1 DUP2 MSTORE PUSH1 0x20 ADD PUSH1 0x0 KECCAK256 PUSH1 0x7 ADD DUP3 DUP2 SLOAD DUP2 LT PUSH2 0x9F2 JUMPI PUSH32 0x4E487B7100000000000000000000000000000000000000000000000000000000 PUSH1 0x0 MSTORE PUSH1 0x32 PUSH1 0x4 MSTORE PUSH1 0x24 PUSH1 0x0 REVERT JUMPDEST SWAP1 PUSH1 0x0 MSTORE PUSH1 0x20 PUSH1 0x0 KECCAK256 ADD PUSH1 0x0 SWAP1 SLOAD SWAP1 PUSH2 0x100 EXP SWAP1 DIV PUSH20 0xFFFFFFFFFFFFFFFFFFFFFFFFFFFFFFFFFFFFFFFF AND PUSH20 0xFFFFFFFFFFFFFFFFFFFFFFFFFFFFFFFFFFFFFFFF AND EQ ISZERO PUSH2 0xA3E JUMPI PUSH1 0x0 DUP1 REVERT JUMPDEST DUP1 DUP1 PUSH2 0xA49 SWAP1 PUSH2 0x1747 JUMP JUMPDEST SWAP2 POP POP PUSH2 0x92D JUMP JUMPDEST POP DUP1 DUP1 PUSH2 0xA5D SWAP1 PUSH2 0x1747 JUMP JUMPDEST SWAP2 POP POP PUSH2 0x922 JUMP JUMPDEST POP PUSH1 0x0 JUMPDEST DUP3 MLOAD DUP2 GT PUSH2 0xB3B JUMPI PUSH1 0x3 PUSH1 0x0 DUP4 DUP2 MSTORE PUSH1 0x20 ADD SWAP1 DUP2 MSTORE PUSH1 0x20 ADD PUSH1 0x0 KECCAK256 PUSH1 0x7 ADD DUP4 DUP3 DUP2 MLOAD DUP2 LT PUSH2 0xAC0 JUMPI PUSH32 0x4E487B7100000000000000000000000000000000000000000000000000000000 PUSH1 0x0 MSTORE PUSH1 0x32 PUSH1 0x4 MSTORE PUSH1 0x24 PUSH1 0x0 REVERT JUMPDEST PUSH1 0x20 MUL PUSH1 0x20 ADD ADD MLOAD SWAP1 DUP1 PUSH1 0x1 DUP2 SLOAD ADD DUP1 DUP3 SSTORE DUP1 SWAP2 POP POP PUSH1 0x1 SWAP1 SUB SWAP1 PUSH1 0x0 MSTORE PUSH1 0x20 PUSH1 0x0 KECCAK256 ADD PUSH1 0x0 SWAP1 SWAP2 SWAP1 SWAP2 SWAP1 SWAP2 PUSH2 0x100 EXP DUP2 SLOAD DUP2 PUSH20 0xFFFFFFFFFFFFFFFFFFFFFFFFFFFFFFFFFFFFFFFF MUL NOT AND SWAP1 DUP4 PUSH20 0xFFFFFFFFFFFFFFFFFFFFFFFFFFFFFFFFFFFFFFFF AND MUL OR SWAP1 SSTORE POP DUP1 DUP1 PUSH2 0xB33 SWAP1 PUSH2 0x1747 JUMP JUMPDEST SWAP2 POP POP PUSH2 0xA69 JUMP JUMPDEST POP DUP1 DUP3 PUSH1 0x40 MLOAD PUSH2 0xB4B SWAP2 SWAP1 PUSH2 0x1392 JUMP JUMPDEST PUSH1 0x40 MLOAD DUP1 SWAP2 SUB SWAP1 KECCAK256 PUSH32 0x71566CBBBA2A90D6171996FE10305D3B79E28D2C2D41BA9AB2A5D9F2F344522C PUSH1 0x40 MLOAD PUSH1 0x40 MLOAD DUP1 SWAP2 SUB SWAP1 LOG3 POP POP JUMP JUMPDEST PUSH1 0x0 DUP1 SLOAD SWAP1 PUSH2 0x100 EXP SWAP1 DIV PUSH20 0xFFFFFFFFFFFFFFFFFFFFFFFFFFFFFFFFFFFFFFFF AND PUSH20 0xFFFFFFFFFFFFFFFFFFFFFFFFFFFFFFFFFFFFFFFF AND CALLER PUSH20 0xFFFFFFFFFFFFFFFFFFFFFFFFFFFFFFFFFFFFFFFF AND EQ PUSH2 0xC11 JUMPI PUSH1 0x40 MLOAD PUSH32 0x8C379A000000000000000000000000000000000000000000000000000000000 DUP2 MSTORE PUSH1 0x4 ADD PUSH2 0xC08 SWAP1 PUSH2 0x141D JUMP JUMPDEST PUSH1 0x40 MLOAD DUP1 SWAP2 SUB SWAP1 REVERT JUMPDEST PUSH1 0x0 JUMPDEST PUSH1 0x3 PUSH1 0x0 DUP4 DUP2 MSTORE PUSH1 0x20 ADD SWAP1 DUP2 MSTORE PUSH1 0x20 ADD PUSH1 0x0 KECCAK256 PUSH1 0x7 ADD DUP1 SLOAD SWAP1 POP DUP2 LT ISZERO PUSH2 0xD41 JUMPI PUSH1 0x3 PUSH1 0x0 DUP4 DUP2 MSTORE PUSH1 0x20 ADD SWAP1 DUP2 MSTORE PUSH1 0x20 ADD PUSH1 0x0 KECCAK256 PUSH1 0x7 ADD DUP2 DUP2 SLOAD DUP2 LT PUSH2 0xC83 JUMPI PUSH32 0x4E487B7100000000000000000000000000000000000000000000000000000000 PUSH1 0x0 MSTORE PUSH1 0x32 PUSH1 0x4 MSTORE PUSH1 0x24 PUSH1 0x0 REVERT JUMPDEST SWAP1 PUSH1 0x0 MSTORE PUSH1 0x20 PUSH1 0x0 KECCAK256 ADD PUSH1 0x0 SWAP1 SLOAD SWAP1 PUSH2 0x100 EXP SWAP1 DIV PUSH20 0xFFFFFFFFFFFFFFFFFFFFFFFFFFFFFFFFFFFFFFFF AND PUSH20 0xFFFFFFFFFFFFFFFFFFFFFFFFFFFFFFFFFFFFFFFF AND PUSH2 0x8FC PUSH1 0x3 PUSH1 0x0 DUP6 DUP2 MSTORE PUSH1 0x20 ADD SWAP1 DUP2 MSTORE PUSH1 0x20 ADD PUSH1 0x0 KECCAK256 PUSH1 0x7 ADD DUP1 SLOAD SWAP1 POP PUSH1 0x3 PUSH1 0x0 DUP7 DUP2 MSTORE PUSH1 0x20 ADD SWAP1 DUP2 MSTORE PUSH1 0x20 ADD PUSH1 0x0 KECCAK256 PUSH1 0x4 ADD SLOAD PUSH2 0xD02 SWAP2 SWAP1 PUSH2 0x15AA JUMP JUMPDEST SWAP1 DUP2 ISZERO MUL SWAP1 PUSH1 0x40 MLOAD PUSH1 0x0 PUSH1 0x40 MLOAD DUP1 DUP4 SUB DUP2 DUP6 DUP9 DUP9 CALL SWAP4 POP POP POP POP ISZERO DUP1 ISZERO PUSH2 0xD2D JUMPI RETURNDATASIZE PUSH1 0x0 DUP1 RETURNDATACOPY RETURNDATASIZE PUSH1 0x0 REVERT JUMPDEST POP DUP1 DUP1 PUSH2 0xD39 SWAP1 PUSH2 0x1747 JUMP JUMPDEST SWAP2 POP POP PUSH2 0xC14 JUMP JUMPDEST POP DUP1 PUSH32 0xCFCD62F236BA65805B61D8EA77BAA3F89AE3FF69EEECBB3D7E1BEA8094DE64E7 PUSH1 0x40 MLOAD PUSH1 0x40 MLOAD DUP1 SWAP2 SUB SWAP1 LOG2 POP JUMP JUMPDEST DUP3 DUP1 SLOAD PUSH2 0xD7E SWAP1 PUSH2 0x16E4 JUMP JUMPDEST SWAP1 PUSH1 0x0 MSTORE PUSH1 0x20 PUSH1 0x0 KECCAK256 SWAP1 PUSH1 0x1F ADD PUSH1 0x20 SWAP1 DIV DUP2 ADD SWAP3 DUP3 PUSH2 0xDA0 JUMPI PUSH1 0x0 DUP6 SSTORE PUSH2 0xDE7 JUMP JUMPDEST DUP3 PUSH1 0x1F LT PUSH2 0xDB9 JUMPI DUP1 MLOAD PUSH1 0xFF NOT AND DUP4 DUP1 ADD OR DUP6 SSTORE PUSH2 0xDE7 JUMP JUMPDEST DUP3 DUP1 ADD PUSH1 0x1 ADD DUP6 SSTORE DUP3 ISZERO PUSH2 0xDE7 JUMPI SWAP2 DUP3 ADD JUMPDEST DUP3 DUP2 GT ISZERO PUSH2 0xDE6 JUMPI DUP3 MLOAD DUP3 SSTORE SWAP2 PUSH1 0x20 ADD SWAP2 SWAP1 PUSH1 0x1 ADD SWAP1 PUSH2 0xDCB JUMP JUMPDEST JUMPDEST POP SWAP1 POP PUSH2 0xDF4 SWAP2 SWAP1 PUSH2 0xF29 JUMP JUMPDEST POP SWAP1 JUMP JUMPDEST DUP3 DUP1 SLOAD PUSH2 0xE04 SWAP1 PUSH2 0x16E4 JUMP JUMPDEST SWAP1 PUSH1 0x0 MSTORE PUSH1 0x20 PUSH1 0x0 KECCAK256 SWAP1 PUSH1 0x1F ADD PUSH1 0x20 SWAP1 DIV DUP2 ADD SWAP3 DUP3 PUSH2 0xE26 JUMPI PUSH1 0x0 DUP6 SSTORE PUSH2 0xE74 JUMP JUMPDEST DUP3 PUSH1 0x1F LT PUSH2 0xE37 JUMPI DUP1 SLOAD DUP6 SSTORE PUSH2 0xE74 JUMP JUMPDEST DUP3 DUP1 ADD PUSH1 0x1 ADD DUP6 SSTORE DUP3 ISZERO PUSH2 0xE74 JUMPI PUSH1 0x0 MSTORE PUSH1 0x20 PUSH1 0x0 KECCAK256 SWAP2 PUSH1 0x1F ADD PUSH1 0x20 SWAP1 DIV DUP3 ADD JUMPDEST DUP3 DUP2 GT ISZERO PUSH2 0xE73 JUMPI DUP3 SLOAD DUP3 SSTORE SWAP2 PUSH1 0x1 ADD SWAP2 SWAP1 PUSH1 0x1 ADD SWAP1 PUSH2 0xE58 JUMP JUMPDEST JUMPDEST POP SWAP1 POP PUSH2 0xE81 SWAP2 SWAP1 PUSH2 0xF29 JUMP JUMPDEST POP SWAP1 JUMP JUMPDEST DUP3 DUP1 SLOAD DUP3 DUP3 SSTORE SWAP1 PUSH1 0x0 MSTORE PUSH1 0x20 PUSH1 0x0 KECCAK256 SWAP1 DUP2 ADD SWAP3 DUP3 ISZERO PUSH2 0xEC6 JUMPI PUSH1 0x0 MSTORE PUSH1 0x20 PUSH1 0x0 KECCAK256 SWAP2 DUP3 ADD JUMPDEST DUP3 DUP2 GT ISZERO PUSH2 0xEC5 JUMPI DUP3 SLOAD DUP3 SSTORE SWAP2 PUSH1 0x1 ADD SWAP2 SWAP1 PUSH1 0x1 ADD SWAP1 PUSH2 0xEAA JUMP JUMPDEST JUMPDEST POP SWAP1 POP PUSH2 0xED3 SWAP2 SWAP1 PUSH2 0xF29 JUMP JUMPDEST POP SWAP1 JUMP JUMPDEST DUP3 DUP1 SLOAD DUP3 DUP3 SSTORE SWAP1 PUSH1 0x0 MSTORE PUSH1 0x20 PUSH1 0x0 KECCAK256 SWAP1 DUP2 ADD SWAP3 DUP3 ISZERO PUSH2 0xF18 JUMPI PUSH1 0x0 MSTORE PUSH1 0x20 PUSH1 0x0 KECCAK256 SWAP2 DUP3 ADD JUMPDEST DUP3 DUP2 GT ISZERO PUSH2 0xF17 JUMPI DUP3 SLOAD DUP3 SSTORE SWAP2 PUSH1 0x1 ADD SWAP2 SWAP1 PUSH1 0x1 ADD SWAP1 PUSH2 0xEFC JUMP JUMPDEST JUMPDEST POP SWAP1 POP PUSH2 0xF25 SWAP2 SWAP1 PUSH2 0xF29 JUMP JUMPDEST POP SWAP1 JUMP JUMPDEST JUMPDEST DUP1 DUP3 GT ISZERO PUSH2 0xF42 JUMPI PUSH1 0x0 DUP2 PUSH1 0x0 SWAP1 SSTORE POP PUSH1 0x1 ADD PUSH2 0xF2A JUMP JUMPDEST POP SWAP1 JUMP JUMPDEST PUSH1 0x0 PUSH2 0xF59 PUSH2 0xF54 DUP5 PUSH2 0x149D JUMP JUMPDEST PUSH2 0x1478 JUMP JUMPDEST SWAP1 POP DUP1 DUP4 DUP3 MSTORE PUSH1 0x20 DUP3 ADD SWAP1 POP DUP3 DUP6 PUSH1 0x20 DUP7 MUL DUP3 ADD GT ISZERO PUSH2 0xF78 JUMPI PUSH1 0x0 DUP1 REVERT JUMPDEST PUSH1 0x0 JUMPDEST DUP6 DUP2 LT ISZERO PUSH2 0xFA8 JUMPI DUP2 PUSH2 0xF8E DUP9 DUP3 PUSH2 0x1005 JUMP JUMPDEST DUP5 MSTORE PUSH1 0x20 DUP5 ADD SWAP4 POP PUSH1 0x20 DUP4 ADD SWAP3 POP POP PUSH1 0x1 DUP2 ADD SWAP1 POP PUSH2 0xF7B JUMP JUMPDEST POP POP POP SWAP4 SWAP3 POP POP POP JUMP JUMPDEST PUSH1 0x0 PUSH2 0xFC5 PUSH2 0xFC0 DUP5 PUSH2 0x14C9 JUMP JUMPDEST PUSH2 0x1478 JUMP JUMPDEST SWAP1 POP DUP3 DUP2 MSTORE PUSH1 0x20 DUP2 ADD DUP5 DUP5 DUP5 ADD GT ISZERO PUSH2 0xFDD JUMPI PUSH1 0x0 DUP1 REVERT JUMPDEST PUSH2 0xFE8 DUP5 DUP3 DUP6 PUSH2 0x16A2 JUMP JUMPDEST POP SWAP4 SWAP3 POP POP POP JUMP JUMPDEST PUSH1 0x0 DUP2 CALLDATALOAD SWAP1 POP PUSH2 0xFFF DUP2 PUSH2 0x18FE JUMP JUMPDEST SWAP3 SWAP2 POP POP JUMP JUMPDEST PUSH1 0x0 DUP2 CALLDATALOAD SWAP1 POP PUSH2 0x1014 DUP2 PUSH2 0x1915 JUMP JUMPDEST SWAP3 SWAP2 POP POP JUMP JUMPDEST PUSH1 0x0 DUP3 PUSH1 0x1F DUP4 ADD SLT PUSH2 0x102B JUMPI PUSH1 0x0 DUP1 REVERT JUMPDEST DUP2 CALLDATALOAD PUSH2 0x103B DUP5 DUP3 PUSH1 0x20 DUP7 ADD PUSH2 0xF46 JUMP JUMPDEST SWAP2 POP POP SWAP3 SWAP2 POP POP JUMP JUMPDEST PUSH1 0x0 DUP3 PUSH1 0x1F DUP4 ADD SLT PUSH2 0x1055 JUMPI PUSH1 0x0 DUP1 REVERT JUMPDEST DUP2 CALLDATALOAD PUSH2 0x1065 DUP5 DUP3 PUSH1 0x20 DUP7 ADD PUSH2 0xFB2 JUMP JUMPDEST SWAP2 POP POP SWAP3 SWAP2 POP POP JUMP JUMPDEST PUSH1 0x0 DUP2 CALLDATALOAD SWAP1 POP PUSH2 0x107D DUP2 PUSH2 0x192C JUMP JUMPDEST SWAP3 SWAP2 POP POP JUMP JUMPDEST PUSH1 0x0 DUP2 CALLDATALOAD SWAP1 POP PUSH2 0x1092 DUP2 PUSH2 0x1943 JUMP JUMPDEST SWAP3 SWAP2 POP POP JUMP JUMPDEST PUSH1 0x0 DUP1 PUSH1 0x40 DUP4 DUP6 SUB SLT ISZERO PUSH2 0x10AB JUMPI PUSH1 0x0 DUP1 REVERT JUMPDEST PUSH1 0x0 PUSH2 0x10B9 DUP6 DUP3 DUP7 ADD PUSH2 0x1005 JUMP JUMPDEST SWAP3 POP POP PUSH1 0x20 PUSH2 0x10CA DUP6 DUP3 DUP7 ADD PUSH2 0x106E JUMP JUMPDEST SWAP2 POP POP SWAP3 POP SWAP3 SWAP1 POP JUMP JUMPDEST PUSH1 0x0 DUP1 PUSH1 0x40 DUP4 DUP6 SUB SLT ISZERO PUSH2 0x10E7 JUMPI PUSH1 0x0 DUP1 REVERT JUMPDEST PUSH1 0x0 DUP4 ADD CALLDATALOAD PUSH8 0xFFFFFFFFFFFFFFFF DUP2 GT ISZERO PUSH2 0x1101 JUMPI PUSH1 0x0 DUP1 REVERT JUMPDEST PUSH2 0x110D DUP6 DUP3 DUP7 ADD PUSH2 0x101A JUMP JUMPDEST SWAP3 POP POP PUSH1 0x20 PUSH2 0x111E DUP6 DUP3 DUP7 ADD PUSH2 0x106E JUMP JUMPDEST SWAP2 POP POP SWAP3 POP SWAP3 SWAP1 POP JUMP JUMPDEST PUSH1 0x0 DUP1 PUSH1 0x0 DUP1 PUSH1 0x0 PUSH1 0xA0 DUP7 DUP9 SUB SLT ISZERO PUSH2 0x1140 JUMPI PUSH1 0x0 DUP1 REVERT JUMPDEST PUSH1 0x0 DUP7 ADD CALLDATALOAD PUSH8 0xFFFFFFFFFFFFFFFF DUP2 GT ISZERO PUSH2 0x115A JUMPI PUSH1 0x0 DUP1 REVERT JUMPDEST PUSH2 0x1166 DUP9 DUP3 DUP10 ADD PUSH2 0x1044 JUMP JUMPDEST SWAP6 POP POP PUSH1 0x20 PUSH2 0x1177 DUP9 DUP3 DUP10 ADD PUSH2 0x106E JUMP JUMPDEST SWAP5 POP POP PUSH1 0x40 PUSH2 0x1188 DUP9 DUP3 DUP10 ADD PUSH2 0x106E JUMP JUMPDEST SWAP4 POP POP PUSH1 0x60 PUSH2 0x1199 DUP9 DUP3 DUP10 ADD PUSH2 0x106E JUMP JUMPDEST SWAP3 POP POP PUSH1 0x80 PUSH2 0x11AA DUP9 DUP3 DUP10 ADD PUSH2 0xFF0 JUMP JUMPDEST SWAP2 POP POP SWAP3 SWAP6 POP SWAP3 SWAP6 SWAP1 SWAP4 POP JUMP JUMPDEST PUSH1 0x0 PUSH1 0x20 DUP3 DUP5 SUB SLT ISZERO PUSH2 0x11C9 JUMPI PUSH1 0x0 DUP1 REVERT JUMPDEST PUSH1 0x0 PUSH2 0x11D7 DUP5 DUP3 DUP6 ADD PUSH2 0x106E JUMP JUMPDEST SWAP2 POP POP SWAP3 SWAP2 POP POP JUMP JUMPDEST PUSH1 0x0 DUP1 PUSH1 0x40 DUP4 DUP6 SUB SLT ISZERO PUSH2 0x11F3 JUMPI PUSH1 0x0 DUP1 REVERT JUMPDEST PUSH1 0x0 PUSH2 0x1201 DUP6 DUP3 DUP7 ADD PUSH2 0x106E JUMP JUMPDEST SWAP3 POP POP PUSH1 0x20 PUSH2 0x1212 DUP6 DUP3 DUP7 ADD PUSH2 0x1083 JUMP JUMPDEST SWAP2 POP POP SWAP3 POP SWAP3 SWAP1 POP JUMP JUMPDEST PUSH1 0x0 PUSH2 0x1228 DUP4 DUP4 PUSH2 0x1234 JUMP JUMPDEST PUSH1 0x20 DUP4 ADD SWAP1 POP SWAP3 SWAP2 POP POP JUMP JUMPDEST PUSH2 0x123D DUP2 PUSH2 0x1647 JUMP JUMPDEST DUP3 MSTORE POP POP JUMP JUMPDEST PUSH1 0x0 PUSH2 0x124E DUP3 PUSH2 0x150A JUMP JUMPDEST PUSH2 0x1258 DUP2 DUP6 PUSH2 0x152D JUMP JUMPDEST SWAP4 POP PUSH2 0x1263 DUP4 PUSH2 0x14FA JUMP JUMPDEST DUP1 PUSH1 0x0 JUMPDEST DUP4 DUP2 LT ISZERO PUSH2 0x1294 JUMPI DUP2 MLOAD PUSH2 0x127B DUP9 DUP3 PUSH2 0x121C JUMP JUMPDEST SWAP8 POP PUSH2 0x1286 DUP4 PUSH2 0x1520 JUMP JUMPDEST SWAP3 POP POP PUSH1 0x1 DUP2 ADD SWAP1 POP PUSH2 0x1267 JUMP JUMPDEST POP DUP6 SWAP4 POP POP POP POP SWAP3 SWAP2 POP POP JUMP JUMPDEST PUSH2 0x12AA DUP2 PUSH2 0x1659 JUMP JUMPDEST DUP3 MSTORE POP POP JUMP JUMPDEST PUSH1 0x0 PUSH2 0x12BB DUP3 PUSH2 0x1515 JUMP JUMPDEST PUSH2 0x12C5 DUP2 DUP6 PUSH2 0x1538 JUMP JUMPDEST SWAP4 POP PUSH2 0x12D5 DUP2 DUP6 PUSH1 0x20 DUP7 ADD PUSH2 0x16B1 JUMP JUMPDEST PUSH2 0x12DE DUP2 PUSH2 0x184C JUMP JUMPDEST DUP5 ADD SWAP2 POP POP SWAP3 SWAP2 POP POP JUMP JUMPDEST PUSH1 0x0 PUSH2 0x12F4 DUP3 PUSH2 0x1515 JUMP JUMPDEST PUSH2 0x12FE DUP2 DUP6 PUSH2 0x1549 JUMP JUMPDEST SWAP4 POP PUSH2 0x130E DUP2 DUP6 PUSH1 0x20 DUP7 ADD PUSH2 0x16B1 JUMP JUMPDEST DUP1 DUP5 ADD SWAP2 POP POP SWAP3 SWAP2 POP POP JUMP JUMPDEST PUSH1 0x0 PUSH2 0x1327 PUSH1 0x21 DUP4 PUSH2 0x1538 JUMP JUMPDEST SWAP2 POP PUSH2 0x1332 DUP3 PUSH2 0x185D JUMP JUMPDEST PUSH1 0x40 DUP3 ADD SWAP1 POP SWAP2 SWAP1 POP JUMP JUMPDEST PUSH1 0x0 PUSH2 0x134A PUSH1 0x13 DUP4 PUSH2 0x1538 JUMP JUMPDEST SWAP2 POP PUSH2 0x1355 DUP3 PUSH2 0x18AC JUMP JUMPDEST PUSH1 0x20 DUP3 ADD SWAP1 POP SWAP2 SWAP1 POP JUMP JUMPDEST PUSH1 0x0 PUSH2 0x136D PUSH1 0x1A DUP4 PUSH2 0x1538 JUMP JUMPDEST SWAP2 POP PUSH2 0x1378 DUP3 PUSH2 0x18D5 JUMP JUMPDEST PUSH1 0x20 DUP3 ADD SWAP1 POP SWAP2 SWAP1 POP JUMP JUMPDEST PUSH2 0x138C DUP2 PUSH2 0x1685 JUMP JUMPDEST DUP3 MSTORE POP POP JUMP JUMPDEST PUSH1 0x0 PUSH2 0x139E DUP3 DUP5 PUSH2 0x1243 JUMP JUMPDEST SWAP2 POP DUP2 SWAP1 POP SWAP3 SWAP2 POP POP JUMP JUMPDEST PUSH1 0x0 PUSH2 0x13B5 DUP3 DUP5 PUSH2 0x12E9 JUMP JUMPDEST SWAP2 POP DUP2 SWAP1 POP SWAP3 SWAP2 POP POP JUMP JUMPDEST PUSH1 0x0 PUSH1 0x20 DUP3 ADD SWAP1 POP PUSH2 0x13D5 PUSH1 0x0 DUP4 ADD DUP5 PUSH2 0x12A1 JUMP JUMPDEST SWAP3 SWAP2 POP POP JUMP JUMPDEST PUSH1 0x0 PUSH1 0x20 DUP3 ADD SWAP1 POP DUP2 DUP2 SUB PUSH1 0x0 DUP4 ADD MSTORE PUSH2 0x13F5 DUP2 DUP5 PUSH2 0x12B0 JUMP JUMPDEST SWAP1 POP SWAP3 SWAP2 POP POP JUMP JUMPDEST PUSH1 0x0 PUSH1 0x20 DUP3 ADD SWAP1 POP DUP2 DUP2 SUB PUSH1 0x0 DUP4 ADD MSTORE PUSH2 0x1416 DUP2 PUSH2 0x131A JUMP JUMPDEST SWAP1 POP SWAP2 SWAP1 POP JUMP JUMPDEST PUSH1 0x0 PUSH1 0x20 DUP3 ADD SWAP1 POP DUP2 DUP2 SUB PUSH1 0x0 DUP4 ADD MSTORE PUSH2 0x1436 DUP2 PUSH2 0x133D JUMP JUMPDEST SWAP1 POP SWAP2 SWAP1 POP JUMP JUMPDEST PUSH1 0x0 PUSH1 0x20 DUP3 ADD SWAP1 POP DUP2 DUP2 SUB PUSH1 0x0 DUP4 ADD MSTORE PUSH2 0x1456 DUP2 PUSH2 0x1360 JUMP JUMPDEST SWAP1 POP SWAP2 SWAP1 POP JUMP JUMPDEST PUSH1 0x0 PUSH1 0x20 DUP3 ADD SWAP1 POP PUSH2 0x1472 PUSH1 0x0 DUP4 ADD DUP5 PUSH2 0x1383 JUMP JUMPDEST SWAP3 SWAP2 POP POP JUMP JUMPDEST PUSH1 0x0 PUSH2 0x1482 PUSH2 0x1493 JUMP JUMPDEST SWAP1 POP PUSH2 0x148E DUP3 DUP3 PUSH2 0x1716 JUMP JUMPDEST SWAP2 SWAP1 POP JUMP JUMPDEST PUSH1 0x0 PUSH1 0x40 MLOAD SWAP1 POP SWAP1 JUMP JUMPDEST PUSH1 0x0 PUSH8 0xFFFFFFFFFFFFFFFF DUP3 GT ISZERO PUSH2 0x14B8 JUMPI PUSH2 0x14B7 PUSH2 0x181D JUMP JUMPDEST JUMPDEST PUSH1 0x20 DUP3 MUL SWAP1 POP PUSH1 0x20 DUP2 ADD SWAP1 POP SWAP2 SWAP1 POP JUMP JUMPDEST PUSH1 0x0 PUSH8 0xFFFFFFFFFFFFFFFF DUP3 GT ISZERO PUSH2 0x14E4 JUMPI PUSH2 0x14E3 PUSH2 0x181D JUMP JUMPDEST JUMPDEST PUSH2 0x14ED DUP3 PUSH2 0x184C JUMP JUMPDEST SWAP1 POP PUSH1 0x20 DUP2 ADD SWAP1 POP SWAP2 SWAP1 POP JUMP JUMPDEST PUSH1 0x0 DUP2 SWAP1 POP PUSH1 0x20 DUP3 ADD SWAP1 POP SWAP2 SWAP1 POP JUMP JUMPDEST PUSH1 0x0 DUP2 MLOAD SWAP1 POP SWAP2 SWAP1 POP JUMP JUMPDEST PUSH1 0x0 DUP2 MLOAD SWAP1 POP SWAP2 SWAP1 POP JUMP JUMPDEST PUSH1 0x0 PUSH1 0x20 DUP3 ADD SWAP1 POP SWAP2 SWAP1 POP JUMP JUMPDEST PUSH1 0x0 DUP2 SWAP1 POP SWAP3 SWAP2 POP POP JUMP JUMPDEST PUSH1 0x0 DUP3 DUP3 MSTORE PUSH1 0x20 DUP3 ADD SWAP1 POP SWAP3 SWAP2 POP POP JUMP JUMPDEST PUSH1 0x0 DUP2 SWAP1 POP SWAP3 SWAP2 POP POP JUMP JUMPDEST PUSH1 0x0 PUSH2 0x155F DUP3 PUSH2 0x1685 JUMP JUMPDEST SWAP2 POP PUSH2 0x156A DUP4 PUSH2 0x1685 JUMP JUMPDEST SWAP3 POP DUP3 PUSH32 0xFFFFFFFFFFFFFFFFFFFFFFFFFFFFFFFFFFFFFFFFFFFFFFFFFFFFFFFFFFFFFFFF SUB DUP3 GT ISZERO PUSH2 0x159F JUMPI PUSH2 0x159E PUSH2 0x1790 JUMP JUMPDEST JUMPDEST DUP3 DUP3 ADD SWAP1 POP SWAP3 SWAP2 POP POP JUMP JUMPDEST PUSH1 0x0 PUSH2 0x15B5 DUP3 PUSH2 0x1685 JUMP JUMPDEST SWAP2 POP PUSH2 0x15C0 DUP4 PUSH2 0x1685 JUMP JUMPDEST SWAP3 POP DUP3 PUSH2 0x15D0 JUMPI PUSH2 0x15CF PUSH2 0x17BF JUMP JUMPDEST JUMPDEST DUP3 DUP3 DIV SWAP1 POP SWAP3 SWAP2 POP POP JUMP JUMPDEST PUSH1 0x0 PUSH2 0x15E6 DUP3 PUSH2 0x1685 JUMP JUMPDEST SWAP2 POP PUSH2 0x15F1 DUP4 PUSH2 0x1685 JUMP JUMPDEST SWAP3 POP DUP2 PUSH32 0xFFFFFFFFFFFFFFFFFFFFFFFFFFFFFFFFFFFFFFFFFFFFFFFFFFFFFFFFFFFFFFFF DIV DUP4 GT DUP3 ISZERO ISZERO AND ISZERO PUSH2 0x162A JUMPI PUSH2 0x1629 PUSH2 0x1790 JUMP JUMPDEST JUMPDEST DUP3 DUP3 MUL SWAP1 POP SWAP3 SWAP2 POP POP JUMP JUMPDEST PUSH1 0x0 PUSH2 0x1640 DUP3 PUSH2 0x1665 JUMP JUMPDEST SWAP1 POP SWAP2 SWAP1 POP JUMP JUMPDEST PUSH1 0x0 PUSH2 0x1652 DUP3 PUSH2 0x1665 JUMP JUMPDEST SWAP1 POP SWAP2 SWAP1 POP JUMP JUMPDEST PUSH1 0x0 DUP2 ISZERO ISZERO SWAP1 POP SWAP2 SWAP1 POP JUMP JUMPDEST PUSH1 0x0 PUSH20 0xFFFFFFFFFFFFFFFFFFFFFFFFFFFFFFFFFFFFFFFF DUP3 AND SWAP1 POP SWAP2 SWAP1 POP JUMP JUMPDEST PUSH1 0x0 DUP2 SWAP1 POP SWAP2 SWAP1 POP JUMP JUMPDEST PUSH1 0x0 PUSH7 0xFFFFFFFFFFFFFF DUP3 AND SWAP1 POP SWAP2 SWAP1 POP JUMP JUMPDEST DUP3 DUP2 DUP4 CALLDATACOPY PUSH1 0x0 DUP4 DUP4 ADD MSTORE POP POP POP JUMP JUMPDEST PUSH1 0x0 JUMPDEST DUP4 DUP2 LT ISZERO PUSH2 0x16CF JUMPI DUP1 DUP3 ADD MLOAD DUP2 DUP5 ADD MSTORE PUSH1 0x20 DUP2 ADD SWAP1 POP PUSH2 0x16B4 JUMP JUMPDEST DUP4 DUP2 GT ISZERO PUSH2 0x16DE JUMPI PUSH1 0x0 DUP5 DUP5 ADD MSTORE JUMPDEST POP POP POP POP JUMP JUMPDEST PUSH1 0x0 PUSH1 0x2 DUP3 DIV SWAP1 POP PUSH1 0x1 DUP3 AND DUP1 PUSH2 0x16FC JUMPI PUSH1 0x7F DUP3 AND SWAP2 POP JUMPDEST PUSH1 0x20 DUP3 LT DUP2 EQ ISZERO PUSH2 0x1710 JUMPI PUSH2 0x170F PUSH2 0x17EE JUMP JUMPDEST JUMPDEST POP SWAP2 SWAP1 POP JUMP JUMPDEST PUSH2 0x171F DUP3 PUSH2 0x184C JUMP JUMPDEST DUP2 ADD DUP2 DUP2 LT PUSH8 0xFFFFFFFFFFFFFFFF DUP3 GT OR ISZERO PUSH2 0x173E JUMPI PUSH2 0x173D PUSH2 0x181D JUMP JUMPDEST JUMPDEST DUP1 PUSH1 0x40 MSTORE POP POP POP JUMP JUMPDEST PUSH1 0x0 PUSH2 0x1752 DUP3 PUSH2 0x1685 JUMP JUMPDEST SWAP2 POP PUSH32 0xFFFFFFFFFFFFFFFFFFFFFFFFFFFFFFFFFFFFFFFFFFFFFFFFFFFFFFFFFFFFFFFF DUP3 EQ ISZERO PUSH2 0x1785 JUMPI PUSH2 0x1784 PUSH2 0x1790 JUMP JUMPDEST JUMPDEST PUSH1 0x1 DUP3 ADD SWAP1 POP SWAP2 SWAP1 POP JUMP JUMPDEST PUSH32 0x4E487B7100000000000000000000000000000000000000000000000000000000 PUSH1 0x0 MSTORE PUSH1 0x11 PUSH1 0x4 MSTORE PUSH1 0x24 PUSH1 0x0 REVERT JUMPDEST PUSH32 0x4E487B7100000000000000000000000000000000000000000000000000000000 PUSH1 0x0 MSTORE PUSH1 0x12 PUSH1 0x4 MSTORE PUSH1 0x24 PUSH1 0x0 REVERT JUMPDEST PUSH32 0x4E487B7100000000000000000000000000000000000000000000000000000000 PUSH1 0x0 MSTORE PUSH1 0x22 PUSH1 0x4 MSTORE PUSH1 0x24 PUSH1 0x0 REVERT JUMPDEST PUSH32 0x4E487B7100000000000000000000000000000000000000000000000000000000 PUSH1 0x0 MSTORE PUSH1 0x41 PUSH1 0x4 MSTORE PUSH1 0x24 PUSH1 0x0 REVERT JUMPDEST PUSH1 0x0 PUSH1 0x1F NOT PUSH1 0x1F DUP4 ADD AND SWAP1 POP SWAP2 SWAP1 POP JUMP JUMPDEST PUSH32 0x457870656374656420616E20696E6374656D656E746564204964206E756D6265 PUSH1 0x0 DUP3 ADD MSTORE PUSH32 0x7200000000000000000000000000000000000000000000000000000000000000 PUSH1 0x20 DUP3 ADD MSTORE POP JUMP JUMPDEST PUSH32 0x43616C6C6572206973206E6F74206F776E657200000000000000000000000000 PUSH1 0x0 DUP3 ADD MSTORE POP JUMP JUMPDEST PUSH32 0x446964206E6F742070617920656E6F75676820746F2052535650000000000000 PUSH1 0x0 DUP3 ADD MSTORE POP JUMP JUMPDEST PUSH2 0x1907 DUP2 PUSH2 0x1635 JUMP JUMPDEST DUP2 EQ PUSH2 0x1912 JUMPI PUSH1 0x0 DUP1 REVERT JUMPDEST POP JUMP JUMPDEST PUSH2 0x191E DUP2 PUSH2 0x1647 JUMP JUMPDEST DUP2 EQ PUSH2 0x1929 JUMPI PUSH1 0x0 DUP1 REVERT JUMPDEST POP JUMP JUMPDEST PUSH2 0x1935 DUP2 PUSH2 0x1685 JUMP JUMPDEST DUP2 EQ PUSH2 0x1940 JUMPI PUSH1 0x0 DUP1 REVERT JUMPDEST POP JUMP JUMPDEST PUSH2 0x194C DUP2 PUSH2 0x168F JUMP JUMPDEST DUP2 EQ PUSH2 0x1957 JUMPI PUSH1 0x0 DUP1 REVERT JUMPDEST POP JUMP INVALID LOG2 PUSH5 0x6970667358 0x22 SLT KECCAK256 0xEC SWAP1 SHR 0xC7 PUSH30 0x9A9B6E269F47D6C250237E2F16D46689D09387CBEC00E4678E963364736F PUSH13 0x63430008040033000000000000 "},"methodIdentifiers":{"batchCheckIn(address[],uint256)":"dbbb216e","checkIn(address,uint256)":"2e66c69a","createNewEvent(string,uint256,uint256,uint256,address)":"bb4c03b1","getEvent(uint256)":"6d1884e0","payout(uint256)":"e1152343","rsvp(uint256,uint56)":"ce5b7311","totalEvents()":"ba870686"}}}}}