{
  "_format": "hh-sol-artifact-1",
  "contractName": "EventHub",
  "sourceName": "contracts/EventHub.sol",
  "abi": [
    {
      "anonymous": false,
      "inputs": [
        {
          "indexed": false,
          "internalType": "string",
          "name": "eventID",
          "type": "string"
        },
        {
          "indexed": false,
          "internalType": "address",
          "name": "attendeeAddress",
          "type": "address"
        }
      ],
      "name": "ConfirmedAttendee",
      "type": "event"
    },
    {
      "anonymous": false,
      "inputs": [
        {
          "indexed": false,
          "internalType": "string",
          "name": "eventID",
          "type": "string"
        }
      ],
      "name": "DepositsPaidOut",
      "type": "event"
    },
    {
      "anonymous": false,
      "inputs": [
        {
          "indexed": false,
          "internalType": "string",
          "name": "eventID",
          "type": "string"
        },
        {
          "indexed": false,
          "internalType": "address",
          "name": "creatorAddress",
          "type": "address"
        },
        {
          "indexed": false,
          "internalType": "uint256",
          "name": "eventTimestamp",
          "type": "uint256"
        },
        {
          "indexed": false,
          "internalType": "uint256",
          "name": "maxCapacity",
          "type": "uint256"
        },
        {
          "indexed": false,
          "internalType": "uint256",
          "name": "deposit",
          "type": "uint256"
        },
        {
          "indexed": false,
          "internalType": "string",
          "name": "eventDataCID",
          "type": "string"
        }
      ],
      "name": "NewEventCreated",
      "type": "event"
    },
    {
      "anonymous": false,
      "inputs": [
        {
          "indexed": false,
          "internalType": "string",
          "name": "eventID",
          "type": "string"
        },
        {
          "indexed": false,
          "internalType": "address",
          "name": "attendeeAddress",
          "type": "address"
        }
      ],
      "name": "NewRSVP",
      "type": "event"
    },
    {
      "inputs": [
        {
          "internalType": "string",
          "name": "eventId",
          "type": "string"
        }
      ],
      "name": "confirmAllAttendees",
      "outputs": [],
      "stateMutability": "nonpayable",
      "type": "function"
    },
    {
      "inputs": [
        {
          "internalType": "string",
          "name": "eventId",
          "type": "string"
        },
        {
          "internalType": "address",
          "name": "attendee",
          "type": "address"
        }
      ],
      "name": "confirmAttendee",
      "outputs": [],
      "stateMutability": "nonpayable",
      "type": "function"
    },
    {
      "inputs": [
        {
          "internalType": "uint256",
          "name": "eventTimestamp",
          "type": "uint256"
        },
        {
          "internalType": "uint256",
          "name": "deposit",
          "type": "uint256"
        },
        {
          "internalType": "uint256",
          "name": "maxCapacity",
          "type": "uint256"
        },
        {
          "internalType": "string",
          "name": "eventDataCID",
          "type": "string"
        },
        {
          "internalType": "string",
          "name": "eventId",
          "type": "string"
        }
      ],
      "name": "createNewEvent",
      "outputs": [
        {
          "internalType": "string",
          "name": "",
          "type": "string"
        }
      ],
      "stateMutability": "nonpayable",
      "type": "function"
    },
    {
      "inputs": [
        {
          "internalType": "string",
          "name": "eventId",
          "type": "string"
        }
      ],
      "name": "createNewRSVP",
      "outputs": [],
      "stateMutability": "payable",
      "type": "function"
    },
    {
      "inputs": [
        {
          "internalType": "string",
          "name": "eventId",
          "type": "string"
        }
      ],
      "name": "getConfirmedRSVPs",
      "outputs": [
        {
          "internalType": "address[]",
          "name": "",
          "type": "address[]"
        }
      ],
      "stateMutability": "view",
      "type": "function"
    },
    {
      "inputs": [
        {
          "internalType": "string",
          "name": "eventID",
          "type": "string"
        }
      ],
      "name": "getEvent",
      "outputs": [
        {
          "internalType": "string",
          "name": "eventDataCID",
          "type": "string"
        },
        {
          "internalType": "address",
          "name": "eventOwner",
          "type": "address"
        },
        {
          "internalType": "uint256",
          "name": "eventTimestamp",
          "type": "uint256"
        },
        {
          "internalType": "uint256",
          "name": "maxCapacity",
          "type": "uint256"
        },
        {
          "internalType": "uint256",
          "name": "deposit",
          "type": "uint256"
        },
        {
          "internalType": "string",
          "name": "eventId",
          "type": "string"
        }
      ],
      "stateMutability": "view",
      "type": "function"
    },
    {
      "inputs": [
        {
          "internalType": "uint256",
          "name": "i",
          "type": "uint256"
        }
      ],
      "name": "getEventId",
      "outputs": [
        {
          "internalType": "string",
          "name": "",
          "type": "string"
        }
      ],
      "stateMutability": "view",
      "type": "function"
    },
    {
      "inputs": [],
      "name": "getEventLength",
      "outputs": [
        {
          "internalType": "uint256",
          "name": "",
          "type": "uint256"
        }
      ],
      "stateMutability": "view",
      "type": "function"
    },
    {
      "inputs": [
        {
          "internalType": "string",
          "name": "",
          "type": "string"
        }
      ],
      "name": "idToEvent",
      "outputs": [
        {
          "internalType": "string",
          "name": "eventId",
          "type": "string"
        },
        {
          "internalType": "string",
          "name": "eventDataCID",
          "type": "string"
        },
        {
          "internalType": "address",
          "name": "eventOwner",
          "type": "address"
        },
        {
          "internalType": "uint256",
          "name": "eventTimestamp",
          "type": "uint256"
        },
        {
          "internalType": "uint256",
          "name": "deposit",
          "type": "uint256"
        },
        {
          "internalType": "uint256",
          "name": "maxCapacity",
          "type": "uint256"
        },
        {
          "internalType": "bool",
          "name": "paidOut",
          "type": "bool"
        }
      ],
      "stateMutability": "view",
      "type": "function"
    },
    {
      "inputs": [],
      "name": "totalEvents",
      "outputs": [
        {
          "internalType": "uint256",
          "name": "",
          "type": "uint256"
        }
      ],
      "stateMutability": "view",
      "type": "function"
    },
    {
      "inputs": [
        {
          "internalType": "string",
          "name": "eventId",
          "type": "string"
        }
      ],
      "name": "withdrawUnclaimedDeposits",
      "outputs": [],
      "stateMutability": "nonpayable",
      "type": "function"
    }
  ],
  "bytecode": "0x608060405234801561001057600080fd5b50612c96806100206000396000f3fe60806040526004361061009c5760003560e01c8063ba87068611610064578063ba87068614610184578063c3be559b146101af578063e1902063146101ec578063e495106b1461022e578063ebf232571461024a578063ff910c9b1461028d5761009c565b80635c98dfa1146100a15780637130026e146100cc57806396350692146100f5578063aad4ba391461011e578063b07e369714610147575b600080fd5b3480156100ad57600080fd5b506100b66102ca565b6040516100c391906126ca565b60405180910390f35b3480156100d857600080fd5b506100f360048036038101906100ee9190611f33565b6102d7565b005b34801561010157600080fd5b5061011c60048036038101906101179190611eee565b610859565b005b34801561012a57600080fd5b5061014560048036038101906101409190611eee565b610daa565b005b34801561015357600080fd5b5061016e60048036038101906101699190611ff5565b611199565b60405161017b919061247c565b60405180910390f35b34801561019057600080fd5b506101996114f1565b6040516101a691906126ca565b60405180910390f35b3480156101bb57600080fd5b506101d660048036038101906101d19190611fcc565b6114f7565b6040516101e3919061247c565b60405180910390f35b3480156101f857600080fd5b50610213600480360381019061020e9190611eee565b6115cd565b6040516102259695949392919061249e565b60405180910390f35b61024860048036038101906102439190611eee565b6117fb565b005b34801561025657600080fd5b50610271600480360381019061026c9190611f8b565b611a12565b604051610284979695949392919061250d565b60405180910390f35b34801561029957600080fd5b506102b460048036038101906102af9190611eee565b611ba7565b6040516102c19190612391565b60405180910390f35b6000600180549050905090565b6000600284846040516102eb929190612363565b908152602001604051809103902090508060020160009054906101000a900473ffffffffffffffffffffffffffffffffffffffff1673ffffffffffffffffffffffffffffffffffffffff163373ffffffffffffffffffffffffffffffffffffffff161461038d576040517f08c379a00000000000000000000000000000000000000000000000000000000081526004016103849061268a565b60405180910390fd5b600080600090505b82600601805490508160ff1610156104c4578373ffffffffffffffffffffffffffffffffffffffff16836006018260ff16815481106103fd577f4e487b7100000000000000000000000000000000000000000000000000000000600052603260045260246000fd5b9060005260206000200160009054906101000a900473ffffffffffffffffffffffffffffffffffffffff1673ffffffffffffffffffffffffffffffffffffffff1614156104b157826006018160ff1681548110610483577f4e487b7100000000000000000000000000000000000000000000000000000000600052603260045260246000fd5b9060005260206000200160009054906101000a900473ffffffffffffffffffffffffffffffffffffffff1691505b80806104bc906129cd565b915050610395565b508273ffffffffffffffffffffffffffffffffffffffff168173ffffffffffffffffffffffffffffffffffffffff1614610533576040517f08c379a000000000000000000000000000000000000000000000000000000000815260040161052a9061264a565b60405180910390fd5b60005b82600701805490508160ff161015610633578373ffffffffffffffffffffffffffffffffffffffff16836007018260ff168154811061059e577f4e487b7100000000000000000000000000000000000000000000000000000000600052603260045260246000fd5b9060005260206000200160009054906101000a900473ffffffffffffffffffffffffffffffffffffffff1673ffffffffffffffffffffffffffffffffffffffff161415610620576040517f08c379a00000000000000000000000000000000000000000000000000000000081526004016106179061258a565b60405180910390fd5b808061062b906129cd565b915050610536565b50600015158260080160009054906101000a900460ff1615151461068c576040517f08c379a0000000000000000000000000000000000000000000000000000000008152600401610683906125aa565b60405180910390fd5b81600701839080600181540180825580915050600190039060005260206000200160009091909190916101000a81548173ffffffffffffffffffffffffffffffffffffffff021916908373ffffffffffffffffffffffffffffffffffffffff16021790555060008373ffffffffffffffffffffffffffffffffffffffff16836004015460405161071b9061237c565b60006040518083038185875af1925050503d8060008114610758576040519150601f19603f3d011682016040523d82523d6000602084013e61075d565b606091505b50509050806107d657826007018054806107a0577f4e487b7100000000000000000000000000000000000000000000000000000000600052603160045260246000fd5b6001900381819060005260206000200160006101000a81549073ffffffffffffffffffffffffffffffffffffffff021916905590555b80610816576040517f08c379a000000000000000000000000000000000000000000000000000000000815260040161080d906125ca565b60405180910390fd5b7f01af219905d550e71d91f4f3db85bd1cee69235123c07aa81040ec7fa52bfb12868686604051610849939291906123d7565b60405180910390a1505050505050565b60006002838360405161086d929190612363565b90815260200160405180910390206040518061012001604052908160008201805461089790612921565b80601f01602080910402602001604051908101604052809291908181526020018280546108c390612921565b80156109105780601f106108e557610100808354040283529160200191610910565b820191906000526020600020905b8154815290600101906020018083116108f357829003601f168201915b5050505050815260200160018201805461092990612921565b80601f016020809104026020016040519081016040528092919081815260200182805461095590612921565b80156109a25780601f10610977576101008083540402835291602001916109a2565b820191906000526020600020905b81548152906001019060200180831161098557829003601f168201915b505050505081526020016002820160009054906101000a900473ffffffffffffffffffffffffffffffffffffffff1673ffffffffffffffffffffffffffffffffffffffff1673ffffffffffffffffffffffffffffffffffffffff16815260200160038201548152602001600482015481526020016005820154815260200160068201805480602002602001604051908101604052809291908181526020018280548015610aa457602002820191906000526020600020905b8160009054906101000a900473ffffffffffffffffffffffffffffffffffffffff1673ffffffffffffffffffffffffffffffffffffffff1681526020019060010190808311610a5a575b5050505050815260200160078201805480602002602001604051908101604052809291908181526020018280548015610b3257602002820191906000526020600020905b8160009054906101000a900473ffffffffffffffffffffffffffffffffffffffff1673ffffffffffffffffffffffffffffffffffffffff1681526020019060010190808311610ae8575b505050505081526020016008820160009054906101000a900460ff161515151581525050905080610100015115610b9e576040517f08c379a0000000000000000000000000000000000000000000000000000000008152600401610b959061262a565b60405180910390fd5b62093a808160600151610bb191906127a6565b421015610bf3576040517f08c379a0000000000000000000000000000000000000000000000000000000008152600401610bea906126aa565b60405180910390fd5b806040015173ffffffffffffffffffffffffffffffffffffffff163373ffffffffffffffffffffffffffffffffffffffff1614610c65576040517f08c379a0000000000000000000000000000000000000000000000000000000008152600401610c5c9061266a565b60405180910390fd5b60008160e00151518260c0015151610c7d9190612856565b90506000826080015182610c9191906127fc565b905060018361010001901515908115158152505060003373ffffffffffffffffffffffffffffffffffffffff1682604051610ccb9061237c565b60006040518083038185875af1925050503d8060008114610d08576040519150601f19603f3d011682016040523d82523d6000602084013e610d0d565b606091505b5050905080610d29576000846101000190151590811515815250505b80610d69576040517f08c379a0000000000000000000000000000000000000000000000000000000008152600401610d60906125ca565b60405180910390fd5b7f951481b5ab03382781591c75ab7640501967f2896d66ab36a6576a1d2c9de5948686604051610d9a9291906123b3565b60405180910390a1505050505050565b600060028383604051610dbe929190612363565b908152602001604051809103902060405180610120016040529081600082018054610de890612921565b80601f0160208091040260200160405190810160405280929190818152602001828054610e1490612921565b8015610e615780601f10610e3657610100808354040283529160200191610e61565b820191906000526020600020905b815481529060010190602001808311610e4457829003601f168201915b50505050508152602001600182018054610e7a90612921565b80601f0160208091040260200160405190810160405280929190818152602001828054610ea690612921565b8015610ef35780601f10610ec857610100808354040283529160200191610ef3565b820191906000526020600020905b815481529060010190602001808311610ed657829003601f168201915b505050505081526020016002820160009054906101000a900473ffffffffffffffffffffffffffffffffffffffff1673ffffffffffffffffffffffffffffffffffffffff1673ffffffffffffffffffffffffffffffffffffffff16815260200160038201548152602001600482015481526020016005820154815260200160068201805480602002602001604051908101604052809291908181526020018280548015610ff557602002820191906000526020600020905b8160009054906101000a900473ffffffffffffffffffffffffffffffffffffffff1673ffffffffffffffffffffffffffffffffffffffff1681526020019060010190808311610fab575b505050505081526020016007820180548060200260200160405190810160405280929190818152602001828054801561108357602002820191906000526020600020905b8160009054906101000a900473ffffffffffffffffffffffffffffffffffffffff1673ffffffffffffffffffffffffffffffffffffffff1681526020019060010190808311611039575b505050505081526020016008820160009054906101000a900460ff1615151515815250509050806040015173ffffffffffffffffffffffffffffffffffffffff163373ffffffffffffffffffffffffffffffffffffffff161461111b576040517f08c379a00000000000000000000000000000000000000000000000000000000081526004016111129061268a565b60405180910390fd5b60005b8160c00151518160ff1610156111935761118084848460c001518460ff1681518110611173577f4e487b7100000000000000000000000000000000000000000000000000000000600052603260045260246000fd5b60200260200101516102d7565b808061118b906129cd565b91505061111e565b50505050565b606080606060405180610120016040528086868080601f016020809104026020016040519081016040528093929190818152602001838380828437600081840152601f19601f82011690508083019250505050505050815260200188888080601f016020809104026020016040519081016040528093929190818152602001838380828437600081840152601f19601f8201169050808301925050505050505081526020013373ffffffffffffffffffffffffffffffffffffffff1681526020018b81526020018a81526020018981526020018381526020018281526020016000151581525060028686604051611291929190612363565b908152602001604051809103902060008201518160000190805190602001906112bb929190611c5f565b5060208201518160010190805190602001906112d8929190611c5f565b5060408201518160020160006101000a81548173ffffffffffffffffffffffffffffffffffffffff021916908373ffffffffffffffffffffffffffffffffffffffff160217905550606082015181600301556080820151816004015560a0820151816005015560c082015181600601908051906020019061135a929190611ce5565b5060e0820151816007019080519060200190611377929190611ce5565b506101008201518160080160006101000a81548160ff0219169083151502179055509050507f9f204c215b1f4f43a33a1b7272e476938a219d677894d59937dfb6e1554a2ab28585338d8c8e8d8d6040516113d9989796959493929190612409565b60405180910390a16000808154809291906113f390612984565b91905055506001858590918060018154018082558091505060019003906000526020600020016000909192909192909192909192509190611435929190611d6f565b5060028585604051611448929190612363565b9081526020016040518091039020600001805461146490612921565b80601f016020809104026020016040519081016040528092919081815260200182805461149090612921565b80156114dd5780601f106114b2576101008083540402835291602001916114dd565b820191906000526020600020905b8154815290600101906020018083116114c057829003601f168201915b505050505092505050979650505050505050565b60005481565b606060018281548110611533577f4e487b7100000000000000000000000000000000000000000000000000000000600052603260045260246000fd5b90600052602060002001805461154890612921565b80601f016020809104026020016040519081016040528092919081815260200182805461157490612921565b80156115c15780601f10611596576101008083540402835291602001916115c1565b820191906000526020600020905b8154815290600101906020018083116115a457829003601f168201915b50505050509050919050565b60606000806000806060600288886040516115e9929190612363565b90815260200160405180910390206001016002898960405161160c929190612363565b908152602001604051809103902060020160009054906101000a900473ffffffffffffffffffffffffffffffffffffffff1660028a8a604051611650929190612363565b90815260200160405180910390206003015460028b8b604051611674929190612363565b90815260200160405180910390206005015460028c8c604051611698929190612363565b90815260200160405180910390206004015460028d8d6040516116bc929190612363565b90815260200160405180910390206000018580546116d990612921565b80601f016020809104026020016040519081016040528092919081815260200182805461170590612921565b80156117525780601f1061172757610100808354040283529160200191611752565b820191906000526020600020905b81548152906001019060200180831161173557829003601f168201915b5050505050955080805461176590612921565b80601f016020809104026020016040519081016040528092919081815260200182805461179190612921565b80156117de5780601f106117b3576101008083540402835291602001916117de565b820191906000526020600020905b8154815290600101906020018083116117c157829003601f168201915b505050505090509550955095509550955095509295509295509295565b60006002838360405161180f929190612363565b90815260200160405180910390209050806005015481600601805490501061186c576040517f08c379a00000000000000000000000000000000000000000000000000000000081526004016118639061260a565b60405180910390fd5b60005b81600601805490508160ff16101561196c573373ffffffffffffffffffffffffffffffffffffffff16826006018260ff16815481106118d7577f4e487b7100000000000000000000000000000000000000000000000000000000600052603260045260246000fd5b9060005260206000200160009054906101000a900473ffffffffffffffffffffffffffffffffffffffff1673ffffffffffffffffffffffffffffffffffffffff161415611959576040517f08c379a0000000000000000000000000000000000000000000000000000000008152600401611950906125ea565b60405180910390fd5b8080611964906129cd565b91505061186f565b5080600601339080600181540180825580915050600190039060005260206000200160009091909190916101000a81548173ffffffffffffffffffffffffffffffffffffffff021916908373ffffffffffffffffffffffffffffffffffffffff1602179055507fabcce16e56e262edb0b0f42f67799f9af66be1921b5e65285ea5c687d9b1e618838333604051611a05939291906123d7565b60405180910390a1505050565b600281805160208101820180518482526020830160208501208183528095505050505050600091509050806000018054611a4b90612921565b80601f0160208091040260200160405190810160405280929190818152602001828054611a7790612921565b8015611ac45780601f10611a9957610100808354040283529160200191611ac4565b820191906000526020600020905b815481529060010190602001808311611aa757829003601f168201915b505050505090806001018054611ad990612921565b80601f0160208091040260200160405190810160405280929190818152602001828054611b0590612921565b8015611b525780601f10611b2757610100808354040283529160200191611b52565b820191906000526020600020905b815481529060010190602001808311611b3557829003601f168201915b5050505050908060020160009054906101000a900473ffffffffffffffffffffffffffffffffffffffff16908060030154908060040154908060050154908060080160009054906101000a900460ff16905087565b6060600060028484604051611bbd929190612363565b9081526020016040518091039020905080600601805480602002602001604051908101604052809291908181526020018280548015611c5157602002820191906000526020600020905b8160009054906101000a900473ffffffffffffffffffffffffffffffffffffffff1673ffffffffffffffffffffffffffffffffffffffff1681526020019060010190808311611c07575b505050505091505092915050565b828054611c6b90612921565b90600052602060002090601f016020900481019282611c8d5760008555611cd4565b82601f10611ca657805160ff1916838001178555611cd4565b82800160010185558215611cd4579182015b82811115611cd3578251825591602001919060010190611cb8565b5b509050611ce19190611df5565b5090565b828054828255906000526020600020908101928215611d5e579160200282015b82811115611d5d5782518260006101000a81548173ffffffffffffffffffffffffffffffffffffffff021916908373ffffffffffffffffffffffffffffffffffffffff16021790555091602001919060010190611d05565b5b509050611d6b9190611df5565b5090565b828054611d7b90612921565b90600052602060002090601f016020900481019282611d9d5760008555611de4565b82601f10611db657803560ff1916838001178555611de4565b82800160010185558215611de4579182015b82811115611de3578235825591602001919060010190611dc8565b5b509050611df19190611df5565b5090565b5b80821115611e0e576000816000905550600101611df6565b5090565b6000611e25611e208461270a565b6126e5565b905082815260208101848484011115611e3d57600080fd5b611e488482856128df565b509392505050565b600081359050611e5f81612c32565b92915050565b60008083601f840112611e7757600080fd5b8235905067ffffffffffffffff811115611e9057600080fd5b602083019150836001820283011115611ea857600080fd5b9250929050565b600082601f830112611ec057600080fd5b8135611ed0848260208601611e12565b91505092915050565b600081359050611ee881612c49565b92915050565b60008060208385031215611f0157600080fd5b600083013567ffffffffffffffff811115611f1b57600080fd5b611f2785828601611e65565b92509250509250929050565b600080600060408486031215611f4857600080fd5b600084013567ffffffffffffffff811115611f6257600080fd5b611f6e86828701611e65565b93509350506020611f8186828701611e50565b9150509250925092565b600060208284031215611f9d57600080fd5b600082013567ffffffffffffffff811115611fb757600080fd5b611fc384828501611eaf565b91505092915050565b600060208284031215611fde57600080fd5b6000611fec84828501611ed9565b91505092915050565b600080600080600080600060a0888a03121561201057600080fd5b600061201e8a828b01611ed9565b975050602061202f8a828b01611ed9565b96505060406120408a828b01611ed9565b955050606088013567ffffffffffffffff81111561205d57600080fd5b6120698a828b01611e65565b9450945050608088013567ffffffffffffffff81111561208857600080fd5b6120948a828b01611e65565b925092505092959891949750929550565b60006120b183836120bd565b60208301905092915050565b6120c68161288a565b82525050565b6120d58161288a565b82525050565b60006120e68261274b565b6120f0818561276e565b93506120fb8361273b565b8060005b8381101561212c57815161211388826120a5565b975061211e83612761565b9250506001810190506120ff565b5085935050505092915050565b6121428161289c565b82525050565b6000612154838561278a565b93506121618385846128df565b61216a83612a84565b840190509392505050565b6000612181838561279b565b935061218e8385846128df565b82840190509392505050565b60006121a582612756565b6121af818561278a565b93506121bf8185602086016128ee565b6121c881612a84565b840191505092915050565b60006121e0600f8361278a565b91506121eb82612a95565b602082019050919050565b600061220360108361278a565b915061220e82612abe565b602082019050919050565b600061222660148361278a565b915061223182612ae7565b602082019050919050565b600061224960118361278a565b915061225482612b10565b602082019050919050565b600061226c601f8361278a565b915061227782612b39565b602082019050919050565b600061228f600c8361278a565b915061229a82612b62565b602082019050919050565b60006122b260128361278a565b91506122bd82612b8b565b602082019050919050565b60006122d560008361277f565b91506122e082612bb4565b600082019050919050565b60006122f860138361278a565b915061230382612bb7565b602082019050919050565b600061231b600e8361278a565b915061232682612be0565b602082019050919050565b600061233e60098361278a565b915061234982612c09565b602082019050919050565b61235d816128c8565b82525050565b6000612370828486612175565b91508190509392505050565b6000612387826122c8565b9150819050919050565b600060208201905081810360008301526123ab81846120db565b905092915050565b600060208201905081810360008301526123ce818486612148565b90509392505050565b600060408201905081810360008301526123f2818587612148565b905061240160208301846120cc565b949350505050565b600060c0820190508181036000830152612424818a8c612148565b905061243360208301896120cc565b6124406040830188612354565b61244d6060830187612354565b61245a6080830186612354565b81810360a083015261246d818486612148565b90509998505050505050505050565b60006020820190508181036000830152612496818461219a565b905092915050565b600060c08201905081810360008301526124b8818961219a565b90506124c760208301886120cc565b6124d46040830187612354565b6124e16060830186612354565b6124ee6080830185612354565b81810360a0830152612500818461219a565b9050979650505050505050565b600060e0820190508181036000830152612527818a61219a565b9050818103602083015261253b818961219a565b905061254a60408301886120cc565b6125576060830187612354565b6125646080830186612354565b61257160a0830185612354565b61257e60c0830184612139565b98975050505050505050565b600060208201905081810360008301526125a3816121d3565b9050919050565b600060208201905081810360008301526125c3816121f6565b9050919050565b600060208201905081810360008301526125e381612219565b9050919050565b600060208201905081810360008301526126038161223c565b9050919050565b600060208201905081810360008301526126238161225f565b9050919050565b6000602082019050818103600083015261264381612282565b9050919050565b60006020820190508181036000830152612663816122a5565b9050919050565b60006020820190508181036000830152612683816122eb565b9050919050565b600060208201905081810360008301526126a38161230e565b9050919050565b600060208201905081810360008301526126c381612331565b9050919050565b60006020820190506126df6000830184612354565b92915050565b60006126ef612700565b90506126fb8282612953565b919050565b6000604051905090565b600067ffffffffffffffff82111561272557612724612a55565b5b61272e82612a84565b9050602081019050919050565b6000819050602082019050919050565b600081519050919050565b600081519050919050565b6000602082019050919050565b600082825260208201905092915050565b600081905092915050565b600082825260208201905092915050565b600081905092915050565b60006127b1826128c8565b91506127bc836128c8565b9250827fffffffffffffffffffffffffffffffffffffffffffffffffffffffffffffffff038211156127f1576127f06129f7565b5b828201905092915050565b6000612807826128c8565b9150612812836128c8565b9250817fffffffffffffffffffffffffffffffffffffffffffffffffffffffffffffffff048311821515161561284b5761284a6129f7565b5b828202905092915050565b6000612861826128c8565b915061286c836128c8565b92508282101561287f5761287e6129f7565b5b828203905092915050565b6000612895826128a8565b9050919050565b60008115159050919050565b600073ffffffffffffffffffffffffffffffffffffffff82169050919050565b6000819050919050565b600060ff82169050919050565b82818337600083830152505050565b60005b8381101561290c5780820151818401526020810190506128f1565b8381111561291b576000848401525b50505050565b6000600282049050600182168061293957607f821691505b6020821081141561294d5761294c612a26565b5b50919050565b61295c82612a84565b810181811067ffffffffffffffff8211171561297b5761297a612a55565b5b80604052505050565b600061298f826128c8565b91507fffffffffffffffffffffffffffffffffffffffffffffffffffffffffffffffff8214156129c2576129c16129f7565b5b600182019050919050565b60006129d8826128d2565b915060ff8214156129ec576129eb6129f7565b5b600182019050919050565b7f4e487b7100000000000000000000000000000000000000000000000000000000600052601160045260246000fd5b7f4e487b7100000000000000000000000000000000000000000000000000000000600052602260045260246000fd5b7f4e487b7100000000000000000000000000000000000000000000000000000000600052604160045260246000fd5b6000601f19601f8301169050919050565b7f414c524541445920434c41494d45440000000000000000000000000000000000600082015250565b7f414c52454144592050414944204f555400000000000000000000000000000000600082015250565b7f4661696c656420746f2073656e64204574686572000000000000000000000000600082015250565b7f414c524541445920434f4e4649524d4544000000000000000000000000000000600082015250565b7f54686973206576656e7420686173207265616368656420636170616369747900600082015250565b7f414c524541445920504149440000000000000000000000000000000000000000600082015250565b7f4e4f205253565020544f20434f4e4649524d0000000000000000000000000000600082015250565b50565b7f4d555354204245204556454e54204f574e455200000000000000000000000000600082015250565b7f4e4f5420415554484f52495a4544000000000000000000000000000000000000600082015250565b7f544f4f204541524c590000000000000000000000000000000000000000000000600082015250565b612c3b8161288a565b8114612c4657600080fd5b50565b612c52816128c8565b8114612c5d57600080fd5b5056fea26469706673582212206b5ec40831b01ab627c645759cafbfaba5e4ad98224899c2416749a4437f19cc64736f6c63430008040033",
  "linkReferences": {},
  "deployedLinkReferences": {}
}