{
  "_format": "hh-sol-artifact-1",
  "contractName": "RSVP",
  "sourceName": "contracts/RSVP.sol",
  "abi": [
    {
      "inputs": [],
      "stateMutability": "nonpayable",
      "type": "constructor"
    },
    {
      "anonymous": false,
      "inputs": [
        {
          "indexed": true,
          "internalType": "address payable[]",
          "name": "_checkInAddresses",
          "type": "address[]"
        },
        {
          "indexed": true,
          "internalType": "uint256",
          "name": "_eventId",
          "type": "uint256"
        }
      ],
      "name": "BatchCheckedIn",
      "type": "event"
    },
    {
      "anonymous": false,
      "inputs": [
        {
          "indexed": true,
          "internalType": "address payable",
          "name": "_checkInAddress",
          "type": "address"
        },
        {
          "indexed": true,
          "internalType": "uint256",
          "name": "_eventId",
          "type": "uint256"
        }
      ],
      "name": "CheckedIn",
      "type": "event"
    },
    {
      "anonymous": false,
      "inputs": [
        {
          "indexed": true,
          "internalType": "string",
          "name": "_eventName",
          "type": "string"
        },
        {
          "indexed": true,
          "internalType": "uint256",
          "name": "_registerPrice",
          "type": "uint256"
        },
        {
          "indexed": true,
          "internalType": "uint256",
          "name": "_registrationDays",
          "type": "uint256"
        }
      ],
      "name": "NewEventCreated",
      "type": "event"
    },
    {
      "anonymous": false,
      "inputs": [
        {
          "indexed": true,
          "internalType": "uint256",
          "name": "_eventId",
          "type": "uint256"
        }
      ],
      "name": "PayoutComplete",
      "type": "event"
    },
    {
      "anonymous": false,
      "inputs": [
        {
          "indexed": false,
          "internalType": "uint256",
          "name": "_amount",
          "type": "uint256"
        },
        {
          "indexed": true,
          "internalType": "uint56",
          "name": "_eventId",
          "type": "uint56"
        }
      ],
      "name": "SignUpCompleted",
      "type": "event"
    },
    {
      "inputs": [
        {
          "internalType": "address payable[]",
          "name": "_checkInAddresses",
          "type": "address[]"
        },
        {
          "internalType": "uint256",
          "name": "_eventId",
          "type": "uint256"
        }
      ],
      "name": "batchCheckIn",
      "outputs": [],
      "stateMutability": "nonpayable",
      "type": "function"
    },
    {
      "inputs": [
        {
          "internalType": "address payable",
          "name": "_checkInAddress",
          "type": "address"
        },
        {
          "internalType": "uint256",
          "name": "_eventId",
          "type": "uint256"
        }
      ],
      "name": "checkIn",
      "outputs": [
        {
          "internalType": "bool",
          "name": "",
          "type": "bool"
        }
      ],
      "stateMutability": "nonpayable",
      "type": "function"
    },
    {
      "inputs": [
        {
          "internalType": "string",
          "name": "_eventName",
          "type": "string"
        },
        {
          "internalType": "uint256",
          "name": "_maxNumber",
          "type": "uint256"
        },
        {
          "internalType": "uint256",
          "name": "_registerPrice",
          "type": "uint256"
        },
        {
          "internalType": "uint256",
          "name": "_registrationDays",
          "type": "uint256"
        },
        {
          "internalType": "address",
          "name": "_eventOwner",
          "type": "address"
        }
      ],
      "name": "createNewEvent",
      "outputs": [
        {
          "internalType": "uint256",
          "name": "",
          "type": "uint256"
        }
      ],
      "stateMutability": "nonpayable",
      "type": "function"
    },
    {
      "inputs": [
        {
          "internalType": "uint256",
          "name": "_eventId",
          "type": "uint256"
        }
      ],
      "name": "getEvent",
      "outputs": [
        {
          "internalType": "string",
          "name": "",
          "type": "string"
        }
      ],
      "stateMutability": "view",
      "type": "function"
    },
    {
      "inputs": [
        {
          "internalType": "uint256",
          "name": "_eventId",
          "type": "uint256"
        }
      ],
      "name": "payout",
      "outputs": [],
      "stateMutability": "payable",
      "type": "function"
    },
    {
      "inputs": [
        {
          "internalType": "uint256",
          "name": "_amount",
          "type": "uint256"
        },
        {
          "internalType": "uint56",
          "name": "_eventId",
          "type": "uint56"
        }
      ],
      "name": "rsvp",
      "outputs": [],
      "stateMutability": "payable",
      "type": "function"
    }
  ],
  "bytecode": "0x6080604052600160025534801561001557600080fd5b50336000806101000a81548173ffffffffffffffffffffffffffffffffffffffff021916908373ffffffffffffffffffffffffffffffffffffffff160217905550611839806100656000396000f3fe6080604052600436106100555760003560e01c80632e66c69a1461005a5780636d1884e014610097578063bb4c03b1146100d4578063ce5b731114610111578063dbbb216e1461012d578063e115234314610156575b600080fd5b34801561006657600080fd5b50610081600480360381019061007c9190610f94565b610172565b60405161008e9190611274565b60405180910390f35b3480156100a357600080fd5b506100be60048036038101906100b991906110b3565b61036c565b6040516100cb919061128f565b60405180910390f35b3480156100e057600080fd5b506100fb60048036038101906100f69190611024565b610414565b6040516101089190611311565b60405180910390f35b61012b600480360381019061012691906110dc565b6105e8565b005b34801561013957600080fd5b50610154600480360381019061014f9190610fd0565b61078d565b005b610170600480360381019061016b91906110b3565b610a7f565b005b60008060009054906101000a900473ffffffffffffffffffffffffffffffffffffffff1673ffffffffffffffffffffffffffffffffffffffff163373ffffffffffffffffffffffffffffffffffffffff1614610203576040517f08c379a00000000000000000000000000000000000000000000000000000000081526004016101fa906112d1565b60405180910390fd5b60005b600360008481526020019081526020016000206007018054905081116102ea578373ffffffffffffffffffffffffffffffffffffffff1660036000858152602001908152602001600020600701828154811061028b577f4e487b7100000000000000000000000000000000000000000000000000000000600052603260045260246000fd5b9060005260206000200160009054906101000a900473ffffffffffffffffffffffffffffffffffffffff1673ffffffffffffffffffffffffffffffffffffffff1614156102d757600080fd5b80806102e2906115f0565b915050610206565b5060036000838152602001908152602001600020600701839080600181540180825580915050600190039060005260206000200160009091909190916101000a81548173ffffffffffffffffffffffffffffffffffffffff021916908373ffffffffffffffffffffffffffffffffffffffff1602179055506001905092915050565b606060036000838152602001908152602001600020600001805461038f9061158d565b80601f01602080910402602001604051908101604052809291908181526020018280546103bb9061158d565b80156104085780601f106103dd57610100808354040283529160200191610408565b820191906000526020600020905b8154815290600101906020018083116103eb57829003601f168201915b50505050509050919050565b6000600254600154141561045d576040517f08c379a0000000000000000000000000000000000000000000000000000000008152600401610454906112b1565b60405180910390fd5b8560046000019080519060200190610476929190610c6e565b508460046001018190555083600460020181905550826004600301819055506000600480018190555081600460050160006101000a81548173ffffffffffffffffffffffffffffffffffffffff021916908373ffffffffffffffffffffffffffffffffffffffff1602179055506004600360006002548152602001908152602001600020600082018160000190805461050e9061158d565b610519929190610cf4565b50600182015481600101556002820154816002015560038201548160030155600482015481600401556005820160009054906101000a900473ffffffffffffffffffffffffffffffffffffffff168160050160006101000a81548173ffffffffffffffffffffffffffffffffffffffff021916908373ffffffffffffffffffffffffffffffffffffffff16021790555060068201816006019080546105bf929190610d81565b5060078201816007019080546105d6929190610dd3565b50905050600254905095945050505050565b670de0b6b3a7640000600360008366ffffffffffffff1681526020019081526020016000206002015461061b9190611484565b821161065c576040517f08c379a0000000000000000000000000000000000000000000000000000000008152600401610653906112f1565b60405180910390fd5b600360008266ffffffffffffff168152602001908152602001600020600601339080600181540180825580915050600190039060005260206000200160009091909190916101000a81548173ffffffffffffffffffffffffffffffffffffffff021916908373ffffffffffffffffffffffffffffffffffffffff16021790555081600360008366ffffffffffffff168152602001908152602001600020600401600082825461070b91906113fd565b9250508190555081600360008366ffffffffffffff168152602001908152602001600020600401600082825461074191906113fd565b925050819055508066ffffffffffffff167f89312209213b327c87aa19b3612de0ab68be449f8a99024e2b0f724b63d90157836040516107819190611311565b60405180910390a25050565b60008054906101000a900473ffffffffffffffffffffffffffffffffffffffff1673ffffffffffffffffffffffffffffffffffffffff163373ffffffffffffffffffffffffffffffffffffffff161461081b576040517f08c379a0000000000000000000000000000000000000000000000000000000008152600401610812906112d1565b60405180910390fd5b60005b825181116109615760005b6003600084815260200190815260200160002060070180549050811161094d57838181518110610882577f4e487b7100000000000000000000000000000000000000000000000000000000600052603260045260246000fd5b602002602001015173ffffffffffffffffffffffffffffffffffffffff166003600085815260200190815260200160002060070182815481106108ee577f4e487b7100000000000000000000000000000000000000000000000000000000600052603260045260246000fd5b9060005260206000200160009054906101000a900473ffffffffffffffffffffffffffffffffffffffff1673ffffffffffffffffffffffffffffffffffffffff16141561093a57600080fd5b8080610945906115f0565b915050610829565b508080610959906115f0565b91505061081e565b5060005b82518111610a3757600360008381526020019081526020016000206007018382815181106109bc577f4e487b7100000000000000000000000000000000000000000000000000000000600052603260045260246000fd5b60200260200101519080600181540180825580915050600190039060005260206000200160009091909190916101000a81548173ffffffffffffffffffffffffffffffffffffffff021916908373ffffffffffffffffffffffffffffffffffffffff1602179055508080610a2f906115f0565b915050610965565b508082604051610a47919061125d565b60405180910390207f71566cbbba2a90d6171996fe10305d3b79e28d2c2d41ba9ab2a5d9f2f344522c60405160405180910390a35050565b60008054906101000a900473ffffffffffffffffffffffffffffffffffffffff1673ffffffffffffffffffffffffffffffffffffffff163373ffffffffffffffffffffffffffffffffffffffff1614610b0d576040517f08c379a0000000000000000000000000000000000000000000000000000000008152600401610b04906112d1565b60405180910390fd5b60005b6003600083815260200190815260200160002060070180549050811015610c3d57600360008381526020019081526020016000206007018181548110610b7f577f4e487b7100000000000000000000000000000000000000000000000000000000600052603260045260246000fd5b9060005260206000200160009054906101000a900473ffffffffffffffffffffffffffffffffffffffff1673ffffffffffffffffffffffffffffffffffffffff166108fc60036000858152602001908152602001600020600701805490506003600086815260200190815260200160002060040154610bfe9190611453565b9081150290604051600060405180830381858888f19350505050158015610c29573d6000803e3d6000fd5b508080610c35906115f0565b915050610b10565b50807fcfcd62f236ba65805b61d8ea77baa3f89ae3ff69eeecbb3d7e1bea8094de64e760405160405180910390a250565b828054610c7a9061158d565b90600052602060002090601f016020900481019282610c9c5760008555610ce3565b82601f10610cb557805160ff1916838001178555610ce3565b82800160010185558215610ce3579182015b82811115610ce2578251825591602001919060010190610cc7565b5b509050610cf09190610e25565b5090565b828054610d009061158d565b90600052602060002090601f016020900481019282610d225760008555610d70565b82601f10610d335780548555610d70565b82800160010185558215610d7057600052602060002091601f016020900482015b82811115610d6f578254825591600101919060010190610d54565b5b509050610d7d9190610e25565b5090565b828054828255906000526020600020908101928215610dc25760005260206000209182015b82811115610dc1578254825591600101919060010190610da6565b5b509050610dcf9190610e25565b5090565b828054828255906000526020600020908101928215610e145760005260206000209182015b82811115610e13578254825591600101919060010190610df8565b5b509050610e219190610e25565b5090565b5b80821115610e3e576000816000905550600101610e26565b5090565b6000610e55610e5084611351565b61132c565b90508083825260208201905082856020860282011115610e7457600080fd5b60005b85811015610ea45781610e8a8882610f01565b845260208401935060208301925050600181019050610e77565b5050509392505050565b6000610ec1610ebc8461137d565b61132c565b905082815260208101848484011115610ed957600080fd5b610ee484828561154b565b509392505050565b600081359050610efb816117a7565b92915050565b600081359050610f10816117be565b92915050565b600082601f830112610f2757600080fd5b8135610f37848260208601610e42565b91505092915050565b600082601f830112610f5157600080fd5b8135610f61848260208601610eae565b91505092915050565b600081359050610f79816117d5565b92915050565b600081359050610f8e816117ec565b92915050565b60008060408385031215610fa757600080fd5b6000610fb585828601610f01565b9250506020610fc685828601610f6a565b9150509250929050565b60008060408385031215610fe357600080fd5b600083013567ffffffffffffffff811115610ffd57600080fd5b61100985828601610f16565b925050602061101a85828601610f6a565b9150509250929050565b600080600080600060a0868803121561103c57600080fd5b600086013567ffffffffffffffff81111561105657600080fd5b61106288828901610f40565b955050602061107388828901610f6a565b945050604061108488828901610f6a565b935050606061109588828901610f6a565b92505060806110a688828901610eec565b9150509295509295909350565b6000602082840312156110c557600080fd5b60006110d384828501610f6a565b91505092915050565b600080604083850312156110ef57600080fd5b60006110fd85828601610f6a565b925050602061110e85828601610f7f565b9150509250929050565b60006111248383611130565b60208301905092915050565b611139816114f0565b82525050565b600061114a826113be565b61115481856113e1565b935061115f836113ae565b8060005b838110156111905781516111778882611118565b9750611182836113d4565b925050600181019050611163565b5085935050505092915050565b6111a681611502565b82525050565b60006111b7826113c9565b6111c181856113ec565b93506111d181856020860161155a565b6111da816116f5565b840191505092915050565b60006111f26021836113ec565b91506111fd82611706565b604082019050919050565b60006112156013836113ec565b915061122082611755565b602082019050919050565b6000611238601a836113ec565b91506112438261177e565b602082019050919050565b6112578161152e565b82525050565b6000611269828461113f565b915081905092915050565b6000602082019050611289600083018461119d565b92915050565b600060208201905081810360008301526112a981846111ac565b905092915050565b600060208201905081810360008301526112ca816111e5565b9050919050565b600060208201905081810360008301526112ea81611208565b9050919050565b6000602082019050818103600083015261130a8161122b565b9050919050565b6000602082019050611326600083018461124e565b92915050565b6000611336611347565b905061134282826115bf565b919050565b6000604051905090565b600067ffffffffffffffff82111561136c5761136b6116c6565b5b602082029050602081019050919050565b600067ffffffffffffffff821115611398576113976116c6565b5b6113a1826116f5565b9050602081019050919050565b6000819050602082019050919050565b600081519050919050565b600081519050919050565b6000602082019050919050565b600081905092915050565b600082825260208201905092915050565b60006114088261152e565b91506114138361152e565b9250827fffffffffffffffffffffffffffffffffffffffffffffffffffffffffffffffff0382111561144857611447611639565b5b828201905092915050565b600061145e8261152e565b91506114698361152e565b92508261147957611478611668565b5b828204905092915050565b600061148f8261152e565b915061149a8361152e565b9250817fffffffffffffffffffffffffffffffffffffffffffffffffffffffffffffffff04831182151516156114d3576114d2611639565b5b828202905092915050565b60006114e98261150e565b9050919050565b60006114fb8261150e565b9050919050565b60008115159050919050565b600073ffffffffffffffffffffffffffffffffffffffff82169050919050565b6000819050919050565b600066ffffffffffffff82169050919050565b82818337600083830152505050565b60005b8381101561157857808201518184015260208101905061155d565b83811115611587576000848401525b50505050565b600060028204905060018216806115a557607f821691505b602082108114156115b9576115b8611697565b5b50919050565b6115c8826116f5565b810181811067ffffffffffffffff821117156115e7576115e66116c6565b5b80604052505050565b60006115fb8261152e565b91507fffffffffffffffffffffffffffffffffffffffffffffffffffffffffffffffff82141561162e5761162d611639565b5b600182019050919050565b7f4e487b7100000000000000000000000000000000000000000000000000000000600052601160045260246000fd5b7f4e487b7100000000000000000000000000000000000000000000000000000000600052601260045260246000fd5b7f4e487b7100000000000000000000000000000000000000000000000000000000600052602260045260246000fd5b7f4e487b7100000000000000000000000000000000000000000000000000000000600052604160045260246000fd5b6000601f19601f8301169050919050565b7f457870656374656420616e20696e6374656d656e746564204964206e756d626560008201527f7200000000000000000000000000000000000000000000000000000000000000602082015250565b7f43616c6c6572206973206e6f74206f776e657200000000000000000000000000600082015250565b7f446964206e6f742070617920656e6f75676820746f2052535650000000000000600082015250565b6117b0816114de565b81146117bb57600080fd5b50565b6117c7816114f0565b81146117d257600080fd5b50565b6117de8161152e565b81146117e957600080fd5b50565b6117f581611538565b811461180057600080fd5b5056fea2646970667358221220b50e7450b91b48e578e74b57608fe96da2d79536416d34b2367aefd7a1a35c7664736f6c63430008040033",
  "linkReferences": {},
  "deployedLinkReferences": {}
}