{
  "_format": "hh-sol-artifact-1",
  "contractName": "RSVP",
  "sourceName": "contracts/RSVP.sol",
  "abi": [
    {
      "inputs": [],
      "stateMutability": "nonpayable",
      "type": "constructor"
    },
    {
      "anonymous": false,
      "inputs": [
        {
          "indexed": true,
          "internalType": "address payable[]",
          "name": "_checkInAddresses",
          "type": "address[]"
        },
        {
          "indexed": true,
          "internalType": "uint256",
          "name": "_eventId",
          "type": "uint256"
        }
      ],
      "name": "BatchCheckedIn",
      "type": "event"
    },
    {
      "anonymous": false,
      "inputs": [
        {
          "indexed": true,
          "internalType": "address payable",
          "name": "_checkInAddress",
          "type": "address"
        },
        {
          "indexed": true,
          "internalType": "uint256",
          "name": "_eventId",
          "type": "uint256"
        }
      ],
      "name": "CheckedIn",
      "type": "event"
    },
    {
      "anonymous": false,
      "inputs": [
        {
          "indexed": true,
          "internalType": "string",
          "name": "_eventName",
          "type": "string"
        },
        {
          "indexed": true,
          "internalType": "uint256",
          "name": "_registerPrice",
          "type": "uint256"
        },
        {
          "indexed": true,
          "internalType": "uint256",
          "name": "_registrationDays",
          "type": "uint256"
        }
      ],
      "name": "NewEventCreated",
      "type": "event"
    },
    {
      "anonymous": false,
      "inputs": [
        {
          "indexed": true,
          "internalType": "uint256",
          "name": "_eventId",
          "type": "uint256"
        }
      ],
      "name": "PayoutComplete",
      "type": "event"
    },
    {
      "anonymous": false,
      "inputs": [
        {
          "indexed": false,
          "internalType": "uint256",
          "name": "_amount",
          "type": "uint256"
        },
        {
          "indexed": true,
          "internalType": "uint56",
          "name": "_eventId",
          "type": "uint56"
        }
      ],
      "name": "SignUpCompleted",
      "type": "event"
    },
    {
      "inputs": [
        {
          "internalType": "address payable[]",
          "name": "_checkInAddresses",
          "type": "address[]"
        },
        {
          "internalType": "uint256",
          "name": "_eventId",
          "type": "uint256"
        }
      ],
      "name": "batchCheckIn",
      "outputs": [],
      "stateMutability": "nonpayable",
      "type": "function"
    },
    {
      "inputs": [
        {
          "internalType": "address payable",
          "name": "_checkInAddress",
          "type": "address"
        },
        {
          "internalType": "uint256",
          "name": "_eventId",
          "type": "uint256"
        }
      ],
      "name": "checkIn",
      "outputs": [
        {
          "internalType": "bool",
          "name": "",
          "type": "bool"
        }
      ],
      "stateMutability": "nonpayable",
      "type": "function"
    },
    {
      "inputs": [
        {
          "internalType": "string",
          "name": "_eventName",
          "type": "string"
        },
        {
          "internalType": "uint256",
          "name": "_maxNumber",
          "type": "uint256"
        },
        {
          "internalType": "uint256",
          "name": "_registerPrice",
          "type": "uint256"
        },
        {
          "internalType": "uint256",
          "name": "_registrationDays",
          "type": "uint256"
        },
        {
          "internalType": "address",
          "name": "_eventOwner",
          "type": "address"
        }
      ],
      "name": "createNewEvent",
      "outputs": [
        {
          "internalType": "uint256",
          "name": "",
          "type": "uint256"
        }
      ],
      "stateMutability": "nonpayable",
      "type": "function"
    },
    {
      "inputs": [
        {
          "internalType": "uint256",
          "name": "_eventId",
          "type": "uint256"
        }
      ],
      "name": "getEvent",
      "outputs": [
        {
          "internalType": "string",
          "name": "",
          "type": "string"
        }
      ],
      "stateMutability": "view",
      "type": "function"
    },
    {
      "inputs": [
        {
          "internalType": "uint256",
          "name": "_eventId",
          "type": "uint256"
        }
      ],
      "name": "payout",
      "outputs": [],
      "stateMutability": "payable",
      "type": "function"
    },
    {
      "inputs": [
        {
          "internalType": "uint256",
          "name": "_amount",
          "type": "uint256"
        },
        {
          "internalType": "uint56",
          "name": "_eventId",
          "type": "uint56"
        }
      ],
      "name": "rsvp",
      "outputs": [],
      "stateMutability": "payable",
      "type": "function"
    },
    {
      "inputs": [],
      "name": "totalEvents",
      "outputs": [
        {
          "internalType": "uint256",
          "name": "",
          "type": "uint256"
        }
      ],
      "stateMutability": "view",
      "type": "function"
    }
  ],
  "bytecode": "0x6080604052600160025534801561001557600080fd5b50336000806101000a81548173ffffffffffffffffffffffffffffffffffffffff021916908373ffffffffffffffffffffffffffffffffffffffff160217905550611990806100656000396000f3fe6080604052600436106100705760003560e01c8063bb4c03b11161004e578063bb4c03b11461011a578063ce5b731114610157578063dbbb216e14610173578063e11523431461019c57610070565b80632e66c69a146100755780636d1884e0146100b2578063ba870686146100ef575b600080fd5b34801561008157600080fd5b5061009c60048036038101906100979190611098565b6101b8565b6040516100a991906113c0565b60405180910390f35b3480156100be57600080fd5b506100d960048036038101906100d491906111b7565b6103f6565b6040516100e691906113db565b60405180910390f35b3480156100fb57600080fd5b5061010461049e565b604051610111919061145d565b60405180910390f35b34801561012657600080fd5b50610141600480360381019061013c9190611128565b6104a4565b60405161014e919061145d565b60405180910390f35b610171600480360381019061016c91906111e0565b6106ec565b005b34801561017f57600080fd5b5061019a600480360381019061019591906110d4565b610891565b005b6101b660048036038101906101b191906111b7565b610b83565b005b60008060009054906101000a900473ffffffffffffffffffffffffffffffffffffffff1673ffffffffffffffffffffffffffffffffffffffff163373ffffffffffffffffffffffffffffffffffffffff1614610249576040517f08c379a00000000000000000000000000000000000000000000000000000000081526004016102409061141d565b60405180910390fd5b60005b60036000848152602001908152602001600020600701805490508111610330578373ffffffffffffffffffffffffffffffffffffffff166003600085815260200190815260200160002060070182815481106102d1577f4e487b7100000000000000000000000000000000000000000000000000000000600052603260045260246000fd5b9060005260206000200160009054906101000a900473ffffffffffffffffffffffffffffffffffffffff1673ffffffffffffffffffffffffffffffffffffffff16141561031d57600080fd5b808061032890611747565b91505061024c565b5060036000838152602001908152602001600020600701839080600181540180825580915050600190039060005260206000200160009091909190916101000a81548173ffffffffffffffffffffffffffffffffffffffff021916908373ffffffffffffffffffffffffffffffffffffffff160217905550818373ffffffffffffffffffffffffffffffffffffffff167fdddb6e14f7f2101397a6526aab95e964de7f1f44ed06aa47a1c9a0e6b992445660405160405180910390a36001905092915050565b6060600360008381526020019081526020016000206000018054610419906116e4565b80601f0160208091040260200160405190810160405280929190818152602001828054610445906116e4565b80156104925780601f1061046757610100808354040283529160200191610492565b820191906000526020600020905b81548152906001019060200180831161047557829003601f168201915b50505050509050919050565b60015481565b600060025460015414156104ed576040517f08c379a00000000000000000000000000000000000000000000000000000000081526004016104e4906113fd565b60405180910390fd5b8560046000019080519060200190610506929190610d72565b508460046001018190555083600460020181905550826004600301819055506000600480018190555081600460050160006101000a81548173ffffffffffffffffffffffffffffffffffffffff021916908373ffffffffffffffffffffffffffffffffffffffff1602179055506004600360006002548152602001908152602001600020600082018160000190805461059e906116e4565b6105a9929190610df8565b50600182015481600101556002820154816002015560038201548160030155600482015481600401556005820160009054906101000a900473ffffffffffffffffffffffffffffffffffffffff168160050160006101000a81548173ffffffffffffffffffffffffffffffffffffffff021916908373ffffffffffffffffffffffffffffffffffffffff160217905550600682018160060190805461064f929190610e85565b506007820181600701908054610666929190610ed7565b509050506001600081548092919061067d90611747565b91905055506002600081548092919061069590611747565b91905055508284876040516106aa91906113a9565b60405180910390207f280a3fef73bcb7a007068343883679f5f372869bfd4f0a91b41361f91064649660405160405180910390a4600254905095945050505050565b670de0b6b3a7640000600360008366ffffffffffffff1681526020019081526020016000206002015461071f91906115db565b8211610760576040517f08c379a00000000000000000000000000000000000000000000000000000000081526004016107579061143d565b60405180910390fd5b600360008266ffffffffffffff168152602001908152602001600020600601339080600181540180825580915050600190039060005260206000200160009091909190916101000a81548173ffffffffffffffffffffffffffffffffffffffff021916908373ffffffffffffffffffffffffffffffffffffffff16021790555081600360008366ffffffffffffff168152602001908152602001600020600401600082825461080f9190611554565b9250508190555081600360008366ffffffffffffff16815260200190815260200160002060040160008282546108459190611554565b925050819055508066ffffffffffffff167f89312209213b327c87aa19b3612de0ab68be449f8a99024e2b0f724b63d9015783604051610885919061145d565b60405180910390a25050565b60008054906101000a900473ffffffffffffffffffffffffffffffffffffffff1673ffffffffffffffffffffffffffffffffffffffff163373ffffffffffffffffffffffffffffffffffffffff161461091f576040517f08c379a00000000000000000000000000000000000000000000000000000000081526004016109169061141d565b60405180910390fd5b60005b82518111610a655760005b60036000848152602001908152602001600020600701805490508111610a5157838181518110610986577f4e487b7100000000000000000000000000000000000000000000000000000000600052603260045260246000fd5b602002602001015173ffffffffffffffffffffffffffffffffffffffff166003600085815260200190815260200160002060070182815481106109f2577f4e487b7100000000000000000000000000000000000000000000000000000000600052603260045260246000fd5b9060005260206000200160009054906101000a900473ffffffffffffffffffffffffffffffffffffffff1673ffffffffffffffffffffffffffffffffffffffff161415610a3e57600080fd5b8080610a4990611747565b91505061092d565b508080610a5d90611747565b915050610922565b5060005b82518111610b3b5760036000838152602001908152602001600020600701838281518110610ac0577f4e487b7100000000000000000000000000000000000000000000000000000000600052603260045260246000fd5b60200260200101519080600181540180825580915050600190039060005260206000200160009091909190916101000a81548173ffffffffffffffffffffffffffffffffffffffff021916908373ffffffffffffffffffffffffffffffffffffffff1602179055508080610b3390611747565b915050610a69565b508082604051610b4b9190611392565b60405180910390207f71566cbbba2a90d6171996fe10305d3b79e28d2c2d41ba9ab2a5d9f2f344522c60405160405180910390a35050565b60008054906101000a900473ffffffffffffffffffffffffffffffffffffffff1673ffffffffffffffffffffffffffffffffffffffff163373ffffffffffffffffffffffffffffffffffffffff1614610c11576040517f08c379a0000000000000000000000000000000000000000000000000000000008152600401610c089061141d565b60405180910390fd5b60005b6003600083815260200190815260200160002060070180549050811015610d4157600360008381526020019081526020016000206007018181548110610c83577f4e487b7100000000000000000000000000000000000000000000000000000000600052603260045260246000fd5b9060005260206000200160009054906101000a900473ffffffffffffffffffffffffffffffffffffffff1673ffffffffffffffffffffffffffffffffffffffff166108fc60036000858152602001908152602001600020600701805490506003600086815260200190815260200160002060040154610d0291906115aa565b9081150290604051600060405180830381858888f19350505050158015610d2d573d6000803e3d6000fd5b508080610d3990611747565b915050610c14565b50807fcfcd62f236ba65805b61d8ea77baa3f89ae3ff69eeecbb3d7e1bea8094de64e760405160405180910390a250565b828054610d7e906116e4565b90600052602060002090601f016020900481019282610da05760008555610de7565b82601f10610db957805160ff1916838001178555610de7565b82800160010185558215610de7579182015b82811115610de6578251825591602001919060010190610dcb565b5b509050610df49190610f29565b5090565b828054610e04906116e4565b90600052602060002090601f016020900481019282610e265760008555610e74565b82601f10610e375780548555610e74565b82800160010185558215610e7457600052602060002091601f016020900482015b82811115610e73578254825591600101919060010190610e58565b5b509050610e819190610f29565b5090565b828054828255906000526020600020908101928215610ec65760005260206000209182015b82811115610ec5578254825591600101919060010190610eaa565b5b509050610ed39190610f29565b5090565b828054828255906000526020600020908101928215610f185760005260206000209182015b82811115610f17578254825591600101919060010190610efc565b5b509050610f259190610f29565b5090565b5b80821115610f42576000816000905550600101610f2a565b5090565b6000610f59610f548461149d565b611478565b90508083825260208201905082856020860282011115610f7857600080fd5b60005b85811015610fa85781610f8e8882611005565b845260208401935060208301925050600181019050610f7b565b5050509392505050565b6000610fc5610fc0846114c9565b611478565b905082815260208101848484011115610fdd57600080fd5b610fe88482856116a2565b509392505050565b600081359050610fff816118fe565b92915050565b60008135905061101481611915565b92915050565b600082601f83011261102b57600080fd5b813561103b848260208601610f46565b91505092915050565b600082601f83011261105557600080fd5b8135611065848260208601610fb2565b91505092915050565b60008135905061107d8161192c565b92915050565b60008135905061109281611943565b92915050565b600080604083850312156110ab57600080fd5b60006110b985828601611005565b92505060206110ca8582860161106e565b9150509250929050565b600080604083850312156110e757600080fd5b600083013567ffffffffffffffff81111561110157600080fd5b61110d8582860161101a565b925050602061111e8582860161106e565b9150509250929050565b600080600080600060a0868803121561114057600080fd5b600086013567ffffffffffffffff81111561115a57600080fd5b61116688828901611044565b95505060206111778882890161106e565b94505060406111888882890161106e565b93505060606111998882890161106e565b92505060806111aa88828901610ff0565b9150509295509295909350565b6000602082840312156111c957600080fd5b60006111d78482850161106e565b91505092915050565b600080604083850312156111f357600080fd5b60006112018582860161106e565b925050602061121285828601611083565b9150509250929050565b60006112288383611234565b60208301905092915050565b61123d81611647565b82525050565b600061124e8261150a565b611258818561152d565b9350611263836114fa565b8060005b8381101561129457815161127b888261121c565b975061128683611520565b925050600181019050611267565b5085935050505092915050565b6112aa81611659565b82525050565b60006112bb82611515565b6112c58185611538565b93506112d58185602086016116b1565b6112de8161184c565b840191505092915050565b60006112f482611515565b6112fe8185611549565b935061130e8185602086016116b1565b80840191505092915050565b6000611327602183611538565b91506113328261185d565b604082019050919050565b600061134a601383611538565b9150611355826118ac565b602082019050919050565b600061136d601a83611538565b9150611378826118d5565b602082019050919050565b61138c81611685565b82525050565b600061139e8284611243565b915081905092915050565b60006113b582846112e9565b915081905092915050565b60006020820190506113d560008301846112a1565b92915050565b600060208201905081810360008301526113f581846112b0565b905092915050565b600060208201905081810360008301526114168161131a565b9050919050565b600060208201905081810360008301526114368161133d565b9050919050565b6000602082019050818103600083015261145681611360565b9050919050565b60006020820190506114726000830184611383565b92915050565b6000611482611493565b905061148e8282611716565b919050565b6000604051905090565b600067ffffffffffffffff8211156114b8576114b761181d565b5b602082029050602081019050919050565b600067ffffffffffffffff8211156114e4576114e361181d565b5b6114ed8261184c565b9050602081019050919050565b6000819050602082019050919050565b600081519050919050565b600081519050919050565b6000602082019050919050565b600081905092915050565b600082825260208201905092915050565b600081905092915050565b600061155f82611685565b915061156a83611685565b9250827fffffffffffffffffffffffffffffffffffffffffffffffffffffffffffffffff0382111561159f5761159e611790565b5b828201905092915050565b60006115b582611685565b91506115c083611685565b9250826115d0576115cf6117bf565b5b828204905092915050565b60006115e682611685565b91506115f183611685565b9250817fffffffffffffffffffffffffffffffffffffffffffffffffffffffffffffffff048311821515161561162a57611629611790565b5b828202905092915050565b600061164082611665565b9050919050565b600061165282611665565b9050919050565b60008115159050919050565b600073ffffffffffffffffffffffffffffffffffffffff82169050919050565b6000819050919050565b600066ffffffffffffff82169050919050565b82818337600083830152505050565b60005b838110156116cf5780820151818401526020810190506116b4565b838111156116de576000848401525b50505050565b600060028204905060018216806116fc57607f821691505b602082108114156117105761170f6117ee565b5b50919050565b61171f8261184c565b810181811067ffffffffffffffff8211171561173e5761173d61181d565b5b80604052505050565b600061175282611685565b91507fffffffffffffffffffffffffffffffffffffffffffffffffffffffffffffffff82141561178557611784611790565b5b600182019050919050565b7f4e487b7100000000000000000000000000000000000000000000000000000000600052601160045260246000fd5b7f4e487b7100000000000000000000000000000000000000000000000000000000600052601260045260246000fd5b7f4e487b7100000000000000000000000000000000000000000000000000000000600052602260045260246000fd5b7f4e487b7100000000000000000000000000000000000000000000000000000000600052604160045260246000fd5b6000601f19601f8301169050919050565b7f457870656374656420616e20696e6374656d656e746564204964206e756d626560008201527f7200000000000000000000000000000000000000000000000000000000000000602082015250565b7f43616c6c6572206973206e6f74206f776e657200000000000000000000000000600082015250565b7f446964206e6f742070617920656e6f75676820746f2052535650000000000000600082015250565b61190781611635565b811461191257600080fd5b50565b61191e81611647565b811461192957600080fd5b50565b61193581611685565b811461194057600080fd5b50565b61194c8161168f565b811461195757600080fd5b5056fea2646970667358221220ec901cc77d9a9b6e269f47d6c250237e2f16d46689d09387cbec00e4678e963364736f6c63430008040033",
  "linkReferences": {},
  "deployedLinkReferences": {}
}